:020000040800F2
:1000000000A00020F5310008792F00087B2F0008A0
:100010007D2F00087F2F0008812F000800000000BE
:10002000000000000000000000000000832F000816
:10003000852F000800000000872F0008892F000886
:1000400045320008453200084532000845320008B4
:1000500045320008453200084532000845320008A4
:100060004532000845320008453200084532000894
:100070004532000845320008453200084532000884
:10008000453200084532000845320008912F00082B
:10009000A12F00084532000845320008453200080B
:1000A0004532000845320008453200084532000854
:1000B0004532000845320008453200084532000844
:1000C0004532000845320008453200084532000834
:1000D000453200084532000845320008B12F0008BB
:1000E0004532000845320008453200084532000814
:1000F0004532000845320008453200084532000804
:100100000000000000000000000000004532000870
:100110004532000845320008C12F0008453200086A
:1001200045320008453200084532000845320008D3
:1001300045320008453200080000000000000000C1
:100140004532000845320008453200080000000032
:10015000000000000000000000000000000000009F
:100160000000000000000000453200084532000891
:100170004532000800000000000000000000000000
:080180000000000045320008F8
:1001880010B5054C237833B9044B13B10448AFF3C9
:1001980000800123237010BD100000200000000023
:1001A800A032000808B5034B1BB103490348AFF35D
:1001B800008008BD0000000014000020A0320008E4
:1001C80010B504460E4B18784FF47A73B3FBF0F36E
:1001D8000C4A1068B0FBF3F000F07CFC68B90F2CF7
:1001E80001D9012010BD002221464FF0FF3000F058
:1001F80033FC054B1C60002010BD012010BD00BF62
:1002080000000020080000200400002008B5074A6C
:10021800136843F010031360032000F00BFC002068
:10022800FFF7CEFF02F08CFE002008BD0020024040
:10023800034A1168034B1B780B441360704700BFD7
:100248003000002000000020014B1868704700BFF4
:100258003000002038B50446FFF7F6FF0546B4F134
:10026800FF3F02D0044B1B781C44FFF7EDFF401BF7
:100278008442FAD838BD00BF00000020002800F0F2
:10028800A18038B5044690F82030D3B122681368AD
:1002980023F002031360FFF7D7FF054623685A6867
:1002A80012F0020F10D0FFF7CFFF401B0A28F5D934
:1002B800636A43F400336362052384F82030012025
:1002C80038BD02F05DFCE1E71A6842F001021A60ED
:1002D800FFF7BAFF054623685A6812F0010F0DD1DF
:1002E800FFF7B2FF401B0A28F5D9636A43F40033CD
:1002F8006362052384F82030012038BD227E012A5C
:100308003DD01A6822F080021A60637E012B3BD030
:100318002268136823F040031360A37E012B39D0B1
:100328002268136823F020031360E37E012B37D083
:100338002268136843F010031360237F012B35D024
:100348002268136823F008031360637F012B33D0FE
:100358002268136823F0040313602168A368E26825
:10036800134322691343626913436268013A1343D2
:10037800CB6100206062012384F8203038BD1A6800
:1003880042F080021A60C0E72268136843F0400315
:100398001360C2E72268136843F020031360C4E7C0
:1003A8002268136823F010031360C6E722681368F5
:1003B80043F008031360C8E72268136843F0040396
:1003C8001360CAE701207047026890F82030013BAB
:1003D800DBB2012B05D9436A43F480234362012031
:1003E800704770B4D2F8003243F00103C2F800320B
:1003F8004B6903F01F03012000FA03F3D2F81C42F3
:10040800D8430440C2F81C42CC69ACB9D2F80C42BB
:100418000440C2F80C424C69CE688D8845EA06450E
:10042800483442F834504C698E680D8845EA0645D0
:10043800483402EBC4046560CC69012C19D08C697E
:1004480074BBD2F804420440C2F804420C696CBB85
:10045800D2F814422040C2F81402096A01292BD0AC
:10046800D2F8003223F00103C2F80032002070BC39
:100478007047D2F80C421C43C2F80C424C690E6813
:100488008D8845EA0645483442F834504C698E68F0
:100498008D8945EA0645483402EBC4046560CEE719
:1004A800D2F804421C43C2F80442CFE7D2F814023F
:1004B8001843C2F81402D0E7D2F81C120B43C2F852
:1004C8001C32CDE738B590F82030DBB2012B05D0CF
:1004D800436A43F400234362012038BD04460223E3
:1004E80080F820300268136823F001031360FFF7D7
:1004F800ABFE054623685B6813F0010F0DD0FFF7CC
:10050800A3FE401B0A28F5D9636A43F400336362EB
:10051800052384F82030012038BD0020606238BDF2
:1005280038B590F82030DBB2022B05D0436A43F48B
:1005380080134362012038BD04460268136843F003
:1005480001031360FFF780FE054623685A6812F01E
:10055800010F0DD1FFF778FE401B0A28F5D9636A11
:1005680043F400336362052384F82030012038BD4A
:100578001A6822F002021A60012384F82030002051
:1005880038BD70B490F820400568AD68013CE4B20D
:10059800012C06D9436A43F480234362012070BCCE
:1005A800704715F0E05F5BD0C5F30165022D3ED8BA
:1005B8000124AC401C608B68002B3ED104680E6897
:1005C800CB6843EA465605F118031B01E650036859
:1005D8000C6905F1180603EB06135C600B7D012B13
:1005E80036D00468D17993791B0443EA01635179C1
:1005F80043EA012311790B432E013444C4F88C31AA
:100608000168D47893781B0443EA0463547843EA76
:100618000423127813433144C1F88831026818352D
:100628002D01535943F0010353510020B7E7436AA2
:1006380043F4000343620120B1E704684E6843EACB
:10064800C603CE68334305F118063601A351BEE749
:10065800036803EB0613596841F480715960C0E7D9
:10066800436A43F400134362012098E730B490F8DA
:100678002040013CE4B2012C06D9436A43F48023AC
:100688004362012030BC704700296FD10468E468D8
:1006980014F0030F64D0056801F11B0424012C59E0
:1006A80004F004049460002C6BD1056801F11B046C
:1006B80024012C59640D1460056801F11B04240100
:1006C8002D59C5F34005D560056825446D6805F0CA
:1006D8000F051561056825446D68C5F30725956103
:1006E80005682C446468240C546104680A011444A5
:1006F800D4F8B8411C7004681444D4F8B841C4F361
:1007080007245C7004681444D4F8B841C4F307445F
:100718009C7004681444D4F8B841240EDC70046852
:100728001444D4F8BC411C7104681444D4F8BC4186
:10073800C4F307245C7104681444D4F8BC41C4F3BE
:1007480007449C7104682244D2F8BC21120EDA7165
:10075800F9B90268D36843F02003D360002091E719
:10076800436A43F40013436201208BE70468246959
:1007780014F0030F8FD1436A43F40013436201203E
:1007880080E7056801F11B0424012C59E408546032
:1007980092E70268136943F020031361002071E7B0
:1007A80090F82030013BDBB2012B05D9436A43F4B2
:1007B80080234362012070470268536919435161DD
:1007C8000020704770477047704770477047704700
:1007D800704770477047704770472DE9F84F0546D6
:1007E80003685C695F689E68D3F80C90D3F8108042
:1007F800D3F818A014F0010F5AD016F0010F17D033
:1008080001229A6016F0020F08D116F0040F30D1B9
:1008180016F0080F07D04FF4805B0BE002F030FAB7
:100828004FF0000B06E0FFF7CFFF4FF0000B01E0A1
:100838004FF0000B16F4807F0BD02B684FF48072BA
:100848009A6016F4007F17D116F4806F18D04BF415
:10085800005B16F4803F2DD02B684FF480329A60ED
:1008680016F4003F16D116F4802F17D04BF4004B26
:1008780020E04FF4006BDDE72846FFF7A3FFE8E729
:1008880016F4006F02D04BF4804BE2E72846FFF7DE
:100898009CFFDEE72846FFF796FF0BE016F4002FD3
:1008A80002D04BF4803B05E02846FFF78FFF01E0BC
:1008B8004FF0000B14F0080F07D019F0100F04D0F8
:1008C8004BF4007B2B681022DA6014F0040F02D07E
:1008D80019F0080F60D114F0020F04D02B68DB6800
:1008E80013F0030F5FD114F0400F07D018F0100F6A
:1008F80004D04BF4806B2B6810221A6114F0200F7F
:1009080002D018F0080F52D114F0100F04D02B6841
:100918001B6913F0030F51D114F4003F02D017F0F4
:10092800100F4FD114F4803F02D017F0080F50D1A8
:1009380014F4004F67D017F0040F61D014F4807FCF
:1009480004D01AF0010F01D04BF0010B14F4007F12
:1009580004D01AF0020F01D04BF0020B14F4806F90
:1009680004D01AF0040F01D04BF0040B14F4006FFC
:1009780046D01AF0700A43D0BAF1300F48D02FD9B8
:10098800BAF1500F47D0BAF1600F47D0BAF1400F13
:1009980031D14BF0400B2EE02B680822DA60284654
:1009A800FFF715FF97E7284602F06CF99BE72B68DD
:1009B80008221A612846FFF70CFFA5E72846FFF72B
:1009C80007FFA9E72B6810225A602846FFF702FFA5
:1009D800A8E72B6808225A602846FFF7FCFEA7E71D
:1009E800BAF1100F05D0BAF1200F04D14BF0100B5B
:1009F80001E04BF0080B2A68936923F070039361B8
:100A08002B6804225A60BBF1000F0AD1BDE8F88FA9
:100A18004BF0200BEFE74BF0800BECE74BF4807BBF
:100A2800E9E76B6A4BEA03036B622846FFF7D4FEDB
:100A3800ECE70000074AD36823F4E0631B041B0CAF
:100A4800000200F4E060184340F0BF6040F400305A
:100A5800D060704700ED00E030B4164BDB68C3F39C
:100A68000223C3F10704042C28BF04241D1D062DEE
:100A780017D9033B012505FA04F4013C21409940AC
:100A880005FA03F3013B1340194300280BDB090166
:100A9800C9B200F1604000F5614080F8001330BC35
:100AA80070470023E6E700F00F000901C9B2024BC6
:100AB8001954F4E700ED00E014ED00E0420900F0FD
:100AC8001F00012303FA00F0014B43F8220070478E
:100AD80000E100E00138B0F1807F0AD2064B58608F
:100AE800F021064A82F823100020986007221A6035
:100AF80070470120704700BF10E000E000ED00E003
:100B080008B590F82130022B03D004238363012019
:100B180008BD0268136823F00E03136002681368A7
:100B280023F001031360C16B036C012202FA03F383
:100B38004B6080F82120002380F82030436B13B1EC
:100B48009847002008BD002008BD0000F0B583B01C
:100B580000238CE0DE08083650F8264003F0070E24
:100B68004FEA8E0E0F2707FA0EF724EA07040F69DB
:100B780007FA0EF73C4340F8264087E0866826408F
:100B8800CF6807FA0EF73E438660466826EA0505F1
:100B98004E68C6F300169E4035434560C5682C4034
:100BA8008D6805FA0EF52C43C4604C6814F0805F1C
:100BB8005CD04A4CA56945F00105A561A46904F01B
:100BC80001040194019C9D08AE1C454C54F8264034
:100BD80003F00306B6000F27B74024EA0704B0F174
:100BE800904F70D03F4FB8426FD007F58067B8423A
:100BF8006DD007F58067B8426BD007F58067B842BB
:100C08005FD0052707FA06F634430235344E46F816
:100C18002540354C2568D44305EA04064F6817F487
:100C2800803F01D042EA05062F4D2E606D6804EA28
:100C380005064F6817F4003F01D042EA05062A4D21
:100C48006E60AD6804EA05064F6817F4801F01D08E
:100C580042EA0506244DAE60ED682C404E6816F455
:100C6800001F01D042EA05041F4AD46001330A6814
:100C780032FA03F42FD001259D402A40F6D04C6863
:100C8800022C3FF467AF122C3FF464AF06684FEABA
:100C9800430E032404FA0EF4E44326404F6807F099
:100CA800030707FA0EF73E4306604E68771E012FCA
:100CB8007FF664AF112E3FF461AF122E7FF46EAF52
:100CC8005CE704279EE700279CE701279AE70227AD
:100CD80098E7032796E703B0F0BD00BF0010024075
:100CE8000000014000040048000401400AB9816284
:100CF8007047816170474369594041617047036893
:100D08009A6912F0020F01D000229A6203689A6968
:100D180012F0010F03D19A6942F001029A617047FB
:100D280070B4039D066870686C0D04F4806444F028
:100D38007F7444F4583444F47F7444F0030420EA84
:100D48000400C1F3090141EA024119432943084358
:100D5800706070BC704770B504460D46164603684F
:100D68009B6913F0100F17D023689A6912F0200FAF
:100D780014D1B5F1FF3FF7D025B1FFF765FA801B15
:100D88008542F1D2202384F84130002384F8423090
:100D980084F84030032070BD002070BD1022DA6155
:100DA80023682025DD612046FFF7A9FF22685368E4
:100DB80023F0FF7323F48B3323F4FF7323F0010331
:100DC80053600423636484F84150002384F842305C
:100DD80084F84030012070BD70B504460D461646B3
:100DE80023689B6913F0020F1CD13246294620461E
:100DF800FFF7B1FFC0B9B5F1FF3FF1D025B1FFF75B
:100E080023FA801B8542EBD2636C43F020036364B2
:100E1800202384F84130002384F8423084F840309D
:100E2800032070BD002070BD012070BDF8B50546D7
:100E38000F4616461C462B689B6937EA03030CBF0E
:100E480001230023B34213D1B4F1FF3FF3D02CB1F7
:100E5800FFF7FAF9069BC01A8442ECD2202385F8E2
:100E68004130002385F8423085F840300320F8BD32
:100E78000020F8BD70B505460C4616462B689B69E0
:100E880013F0200F19D1324621462846FFF763FF99
:100E9800A8B924B1FFF7D8F9801B8442EED26B6C55
:100EA80043F020036B64202385F84130002385F844
:100EB800423085F84030032070BD002070BD01200D
:100EC80070BD002859D010B5044690F84130002B69
:100ED80043D0242384F841302268136823F00103A7
:100EE80013602268636823F0706313612268936853
:100EF80023F400439360E368012B33D02268A3688E
:100F080043F404439360E368022B31D022685368AA
:100F180043F0007343F4004353602268D36823F41A
:100F28000043D3602268236961690B43A16943EADE
:100F38000123D3602268E369216A0B4313602268A6
:100F4800136843F00103136000206064202384F8D1
:100F58004130206384F8420010BD80F8403001F031
:100F68000FFFB6E72268A36843F400439360CAE71B
:100F780023684FF400625A60C8E7012070470000F8
:100F88002DE9F04383B090F84150EDB2202D04D004
:100F98000223184603B0BDE8F08390F84040012CC6
:100FA80001D10223F5E7984617460D4604464FF04F
:100FB800010980F84090FFF747F906460090192389
:100FC8004A464FF400412046FFF730FF08B103239B
:100FD800DFE7212384F84130102384F842300023CE
:100FE80063646762A4F82A806363638D9BB2FF2BF6
:100FF8000AD9FF222285434B00934FF0807329467C
:101008002046FFF78DFE1FE0628D92B222853D4B90
:1010180000934FF00073D2B229462046FFF780FEB6
:1010280012E0636C042B01D00323B2E70123B0E77D
:10103800628D92B22285002300934FF00073D2B2E2
:1010480029462046FFF76CFE638D9BB2002B32D0F9
:1010580032460A992046FFF7BFFE0028E1D12268F0
:10106800636A591C61621B789362638D9BB2013B72
:101078009BB26385238D013B9BB22385002BE3D173
:10108800638D9BB2002BDFD000960A9B0022802143
:101098002046FFF7CBFE90BB638D9BB2FF2BC7D9D1
:1010A800FF222285002300934FF0807329462046B3
:1010B800FFF736FEC8E732460A992046FFF7DAFE00
:1010C800034630B1636C042B01D0032361E701238D
:1010D8005FE722682021D1612068426822F0FF7210
:1010E80022F48B3222F4FF7222F00102426084F86B
:1010F8004110002284F8422084F8402049E7032365
:1011080047E700BF0020008090F84130DBB2202B79
:1011180001D00220704790F84030012B20D00123E5
:1011280080F84030242380F841300268136823F0A7
:10113800010313600268136823F480531360026884
:101148001368194311600268136843F001031360C0
:10115800202380F84130002380F84030184670473B
:101168000220704790F84130DBB2202B01D00220DA
:10117800704790F84030012B1ED0012380F8403092
:10118800242380F841300268136823F001031360B8
:101198000268136823F4706343EA0121116002684E
:1011A800136843F001031360202380F841300023C3
:1011B80080F840301846704702207047002800F039
:1011C800F38270B582B00446036813F0010F63D050
:1011D800B44B5B6803F00C03042B46D0B14B5B683F
:1011E80003F00C03082B3BD06368B3F5803F00F095
:1011F8008E80002B40F0918003F1804303F5043387
:101208001A6822F480321A601A6822F480221A605E
:10121800A44AD36A23F00F03A1680B43D36263681F
:10122800002B00F09480FFF70FF805464FF40033C9
:1012380093FAA3F39B4B19684FF4003393FAA3F383
:10124800B3FA83F303F01F03012202FA03F31942EE
:1012580022D1FEF7F9FF401B6428E7D90320B2E248
:10126800904B5B6813F4803FBED04FF4003393FA81
:10127800A3F38C4B19684FF4003393FAA3F3B3FA32
:1012880083F303F01F03012202FA03F3194203D088
:101298006368002B00F08A82236813F0020F00F0C5
:1012A8009C80804B5B6813F00C0F72D07D4B5B68A1
:1012B80003F00C03082B67D02369002B00F0CB80C8
:1012C800012292FAA2F3B3FA83F303F1845303F5EC
:1012D80084139B001A60FEF7B7FF0546022393FAB2
:1012E800A3F3704B1968022393FAA3F3B3FA83F3B9
:1012F80003F01F03012202FA03F3194240F09C8015
:10130800FEF7A2FF401B0228E8D903205BE2654AEA
:10131800136843F4803313607AE7B3F5A02F09D03C
:10132800604B1A6822F480321A601A6822F480220C
:101338001A606DE703F18043A3F53C331A6842F461
:1013480080221A601A6842F480321A6060E7FEF759
:101358007BFF05464FF4003393FAA3F3514B19680A
:101368004FF4003393FAA3F3B3FA83F303F01F03A4
:10137800012202FA03F319428ED0FEF765FF401BE3
:101388006428E7D903201EE2464B5B6813F4803FCC
:1013980092D1022393FAA3F3424B1968022393FADA
:1013A800A3F3B3FA83F303F01F03012202FA03F352
:1013B800194204D02369934201D0012003E239483D
:1013C800036823F0F8036169F82292FAA2F2B2FAEC
:1013D80082F201FA02F213430360236813F0080F44
:1013E80000F08C80A369002B60D0012191FAA1F252
:1013F800B2FA82F22C4B13449B001960FEF724FFCB
:101408000546022393FAA3F293FAA3F293FAA3F2FE
:10141800244A516A93FAA3F3B3FA83F303F01F0340
:10142800012202FA03F3194268D1FEF70DFF401BAF
:101438000228E6D90320C6E11A48036823F0F80316
:101448006169F82292FAA2F2B2FA82F201FA02F281
:1014580013430360C1E7012393FAA3F3B3FA83F3B9
:1014680003F1845303F584139B0000221A60FEF7EE
:10147800EBFE0546022393FAA3F30A4B19680223ED
:1014880093FAA3F3B3FA83F303F01F03012202FADA
:1014980003F31942A1D0FEF7D7FE401B0228E9D971
:1014A800032090E10010024020819010012292FA5E
:1014B800A2F2B2FA82F2C04B13449B0000221A60D7
:1014C800FEF7C2FE0546022393FAA3F293FAA3F2AB
:1014D80093FAA3F2B94A516A93FAA3F3B3FA83F3DE
:1014E80003F01F03012202FA03F3194206D0FEF7A4
:1014F800ABFE401B0228E6D9032064E1236813F001
:10150800040F00F0B380AD4BDB6913F0805F26D188
:10151800AA4BDA6942F08052DA61DB6903F0805342
:101528000193019B0125A64B1B6813F4807F18D0FB
:10153800E368012B29D073BB03F1804303F504331F
:101548001A6A22F001021A621A6A22F004021A6266
:10155800E368002B5DD0FEF777FE064647E00025DE
:10156800E1E7974A136843F480731360FEF76CFE53
:101578000646934B1B6813F4807FD9D1FEF764FEAF
:10158800801B6428F5D903201DE18C4A136A43F0B7
:1015980001031362DCE7052B09D0884B1A6A22F095
:1015A80001021A621A6A22F004021A62D0E7834B17
:1015B8001A6A42F004021A621A6A42F001021A62B6
:1015C800C6E77E4B196A022393FAA3F3B3FA83F3AF
:1015D80003F01F03012202FA03F3194245D1FEF773
:1015E80033FE801B41F28833984200F2E1800223E7
:1015F80093FAA3F293FAA3F3B3FA83F35B0943F0E4
:101608000203022BDDD0022393FAA3F36B4B596A32
:10161800D9E7FEF719FE064615E0684B196A02235A
:1016280093FAA3F3B3FA83F303F01F03012202FA38
:1016380003F3194219D0FEF707FE801B41F28833E5
:10164800984200F2B780022393FAA3F293FAA3F325
:10165800B3FA83F35B0943F00203022BDDD00223C4
:1016680093FAA3F3554B596AD9E7B5BBE369002B45
:1016780000F0A880514A526802F00C02082A00F0D3
:10168800A480022B2FD04FF0807393FAA3F3B3FA00
:1016980083F303F1845303F584139B0000221A603B
:1016A800FEF7D2FD04464FF0007393FAA3F3434BC1
:1016B80019684FF0007393FAA3F3B3FA83F303F0B6
:1016C8001F03012202FA03F319426BD0FEF7BCFD97
:1016D800001B0228E7D9032075E0384AD36923F0B4
:1016E8008053D361C2E74FF0807393FAA3F3B3FA40
:1016F80083F303F1845303F584139B0000221A60DB
:10170800FEF7A2FD05464FF0007393FAA3F32B4BA7
:1017180019684FF0007393FAA3F3B3FA83F303F055
:101728001F03012202FA03F3194206D0FEF78CFDCB
:10173800401B0228E7D9032045E020494B6823F4E1
:101748007413626A206A024313434B604FF080733C
:1017580093FAA3F3B3FA83F303F1845303F58413E1
:101768009B0001221A60FEF76FFD04464FF00073DC
:1017780093FAA3F3114B19684FF0007393FAA3F38C
:10178800B3FA83F303F01F03012202FA03F31942A9
:1017980006D1FEF759FD001B0228E7D9032012E005
:1017A800002010E000200EE00120704701200AE030
:1017B800032008E0032006E020819010001002407A
:1017C80000700040002002B070BD0120FBE700BFA0
:1017D800164B5B6803F00C02082A24D103F470113D
:1017E8004FF4701292FAA2F2B2FA82F221FA02F2DD
:1017F8000F49885C0D4AD26A02F00F020F2191FA54
:10180800A1F1B1FA81F1CA400A498A5C13F4803F18
:1018180003D1094B03FB00F07047084BB3FBF2F30D
:1018280003FB00F070470548704700BF00100240F6
:10183800C0320008D032000800093D0000127A00CA
:10184800002800F0C08070B50446614B1B6803F0A7
:1018580007038B420CD25E4A136823F007030B433D
:101868001360136803F00703994201D0012070BD8B
:10187800236813F0020F06D0564A536823F0F0038A
:10188800A068034353600D46236813F0010F5AD034
:101898006368012B2DD0022B40D0022292FAA2F2CB
:1018A8004C4A1068022292FAA2F2B2FA82F202F0CC
:1018B8001F02012101FA02F2104200F08680454918
:1018C8004A6822F0030213434B60FEF7BDFC06464C
:1018D800404B5B6803F00C036268B3EB820F32D0B5
:1018E800FEF7B2FC801B41F288339842F0D90320FE
:1018F80070BD4FF4003292FAA2F2364A10684FF4E3
:10190800003292FAA2F2B2FA82F202F01F02012128
:1019180001FA02F21042D2D1012070BD4FF00072DC
:1019280092FAA2F22B4A10684FF0007292FAA2F2D1
:10193800B2FA82F202F01F02012101FA02F2104209
:10194800BDD1012070BD224B1B6803F007039D42E7
:101958000CD21F4A136823F007032B431360136844
:1019680003F007039D4201D0012070BD236813F0E6
:10197800040F06D0174A536823F4E063E1680B4369
:101988005360236813F0080F07D0124A536823F4F2
:101998006053216943EAC1035360FFF719FF0D4BF8
:1019A8005B6803F0F003F02292FAA2F2B2FA82F234
:1019B800D340094AD35CD840084B18600020FEF792
:1019C800FFFB002070BD01207047012070BD00BFE3
:1019D8000020024000100240E03200080800002009
:1019E800014B1868704700BF0800002008B5FFF7D2
:1019F800F7FF074B5B6803F4E0634FF4E06292FA89
:101A0800A2F2B2FA82F2D340024AD35CD84008BDAF
:101A180000100240F032000808B5FFF7E1FF074B5D
:101A28005B6803F460534FF4605292FAA2F2B2FA80
:101A380082F2D340024AD35CD84008BD001002406D
:101A4800F0320008F0B583B00446036813F4803F11
:101A580048D0934BDB6913F0805F40F0D580904B02
:101A6800DA6942F08052DA61DB6903F0805301934E
:101A7800019B01258B4B1B6813F4807F00F0C68007
:101A8800874B1B6A13F4407322D0626802F44072D9
:101A980093421DD08248016A21F440764FF4803386
:101AA80093FAA3F2B2FA82F27F4F3A4492004FF0CF
:101AB800010EC2F800E093FAA3F3B3FA83F33B44B0
:101AC8009B0000221A60066211F0010F40F0B380FB
:101AD800734A136A23F4407361680B431362002D41
:101AE80040F0D580236813F0010F06D06C4A136BC1
:101AF80023F00303A1680B431363236813F0020F59
:101B080006D0674A136B23F44033E1680B43136331
:101B1800236813F0040F06D0614A136B23F44023A3
:101B280021690B431363236813F0200F06D05C4A26
:101B3800136B23F01003E1690B431363236813F459
:101B4800003F06D0564A536823F48003A16B0B4329
:101B58005360236813F0400F06D0514A136B23F0EB
:101B68002003216A0B431363236813F0080F06D080
:101B78004B4A136B23F4401361690B4313632368C7
:101B880013F0100F06D0464A136B23F44003A169E3
:101B98000B431363236813F4007F06D0404A53684D
:101BA80023F40003E16A0B435360236813F0800FAA
:101BB80006D03B4AD36A23F4F873616A0B43D362B5
:101BC800236813F4807F06D0354AD36A23F4785308
:101BD800A16A0B43D362236813F4805F06D0304AAE
:101BE800136B23F48073216B0B431363236813F483
:101BF800005F53D02A4A136B23F40073616B0B43C5
:101C08001363002003B0F0BD002533E7254A1368AD
:101C180043F480731360FEF717FB0646214B1B68DD
:101C280013F4807F7FF42CAFFEF70EFB801B642833
:101C3800F4D90320E6E7FEF707FB064615E0184B44
:101C4800196A022393FAA3F3B3FA83F303F01F0389
:101C5800012202FA03F319427FF43AAFFEF7F4FACD
:101C6800801B41F28833984216D8022393FAA3F2D4
:101C780093FAA3F3B3FA83F35B0943F00203022B4D
:101C8800DDD0022393FAA3F3054B596AD9E7D36948
:101C980023F08053D36125E70320B3E70020B1E7A1
:101CA8000010024000700040008190100268D36864
:101CB80043F00103D3600268136843F00103136023
:101CC800002070477047704770477047704710B5DD
:101CD800044603681A6912F0020F11D0DA6812F08C
:101CE800020F0DD06FF002021A6101230377036817
:101CF8009B6913F0030F79D0FFF7E6FF00232377E2
:101D080023681A6912F0040F12D0DA6812F0040F6F
:101D18000ED06FF004021A610223237723689B69AF
:101D280013F4407F68D02046FFF7CEFF00232377C7
:101D380023681A6912F0080F12D0DA6812F0080F37
:101D48000ED06FF008021A61042323772368DB6939
:101D580013F0030F57D02046FFF7B6FF0023237771
:101D680023681A6912F0100F12D0DA6812F0100FF7
:101D78000ED06FF010021A61082323772368DB69FD
:101D880013F4407F46D02046FFF79EFF00232377B9
:101D980023681A6912F0010F03D0DA6812F0010FF4
:101DA8003FD123681A6912F0800F03D0DA6812F065
:101DB800800F3DD123681A6912F4807F03D0DA6856
:101DC80012F0800F3BD123681A6912F0400F03D03C
:101DD800DA6812F0400F39D123681A6912F0200F1F
:101DE80003D0DA6812F0200F37D110BDFFF76BFF70
:101DF8002046FFF76AFF81E72046FFF764FF204689
:101E0800FFF763FF92E72046FFF75DFF2046FFF7E5
:101E18005CFFA3E72046FFF756FF2046FFF755FF74
:101E2800B4E76FF001021A612046FFF74BFFB8E7ED
:101E38006FF080021A61204600F0B9F8BAE76FF433
:101E480080721A61204600F0B3F8BCE76FF04002D8
:101E58001A612046FFF73AFFBEE76FF020021A61C9
:101E6800204600F0A3F8C0E703682C4A90420ED041
:101E7800B0F1804F0BD0A2F59432904207D002F512
:101E88008062904203D002F59632904203D123F04B
:101E980070034A681343214A90421AD0B0F1804F28
:101EA80017D0A2F59432904213D002F58062904286
:101EB8000FD002F5963290420BD002F54062904264
:101EC80007D002F58062904203D002F5806290420A
:101ED80003D123F44073CA68134323F080034A698B
:101EE800134303608B68C3620B6883620B4B984291
:101EF8000FD003F5006398420BD003F54063984276
:101F080007D003F58063984203D003F580639842B5
:101F180001D10B690363012343617047002C014021
:101F2800A8B110B5044690F83D305BB1022384F89F
:101F38003D30211D2068FFF797FF012384F83D30CD
:101F4800002010BD80F83C3001F0AAF8EEE701202F
:101F58007047000090F83C30012B23D030B40123A7
:101F680080F83C3004686368A2680F4DAC4214D016
:101F780005F50065AC4210D023F070030D682B43C3
:101F880022F0800289680A43636003689A6000232C
:101F980080F83C30184630BC704723F470034D6815
:101FA8002B43E9E702207047002C01407047704737
:101FB80070470268136823F490731360026893688B
:101FC80023F001039360202380F86A30704790F86B
:101FD8006930DBB2202B01D002207047B9B1C2B101
:101FE80090F86830012B16D0C164A0F85020A0F8F2
:101FF80052200023C366212280F8692080F86830C7
:1020080001680A6842F080020A6018467047012099
:102018007047012070470220704790F86A30DBB2A1
:10202800202B01D002207047002939D0002A39D04E
:1020380090F86830012B37D0012380F8683041656B
:10204800A0F85820A0F85A208368B3F5805F18D00C
:1020580023B9036903BBFF23A0F85C300023C366E0
:10206800222280F86A2080F8683001688A6842F085
:1020780001028A6001680A6842F490720A60184690
:102088007047036923B940F2FF13A0F85C30E5E715
:10209800FF23A0F85C30E1E77F23A0F85C30DDE7A0
:1020A800012070470120704702207047704708B52B
:1020B800406A0023A0F85A30A0F85230FFF7F6FF24
:1020C80008BD000038B504468368026913434269B5
:1020D8001343C269134301680A6822F4164222F0C6
:1020E8000C0213430B600268536823F44053C16821
:1020F8000B4353608369026A134301688A6822F4B8
:10210800306213438B600568904B9D421FD0904B03
:102118009D422FD08F4B9D4246D08F4B9D425DD024
:102128008E4B9D4274D01023E269B2F5004F00F047
:102138008B80082B00F20781DFE813F0CE00D9006E
:10214800E4000501F000050105010501FB0003F5A8
:1021580058431B6B03F00303032B09D8DFE803F094
:10216800020406720123DFE70423DDE70823DBE727
:102178001023D9E703F5E6331B6B03F44033B3F5BB
:10218800803F0BD007D9B3F5003F09D0B3F5403FE6
:1021980008D10223C8E72BB90023C5E70423C3E706
:1021A8000823C1E71023BFE703F5E4331B6B03F4EF
:1021B8004023B3F5802F0BD007D9B3F5002F09D0F2
:1021C800B3F5402F08D10223AEE72BB90023ABE7C4
:1021D8000423A9E70823A7E71023A5E703F5E233BB
:1021E8001B6B03F44013B3F5801F0BD007D9B3F56D
:1021F800001F09D0B3F5401F08D1022394E72BB97B
:10220800002391E704238FE708238DE710238BE74A
:1022180003F5E0331B6B03F44003B3F5800F0BD0D9
:1022280007D9B3F5000F09D0B3F5400F08D1022341
:102238007AE72BB9002377E7042375E7082373E7C8
:10224800102371E702236FE7082B42D8DFE803F079
:10225800051722412D4141413800FFF7C7FB62684D
:10226800530803EB4003B3FBF2F39BB2002023F0C7
:102278000F02C3F3420313432268D36038BDFFF74C
:10228800CBFB6268530803EB4003B3FBF2F39BB24A
:102298000020ECE76268530803F5740303F5105354
:1022A800B3FBF2F39BB20020E1E7FFF791FA626813
:1022B800530803EB4003B3FBF2F39BB20020D6E7CD
:1022C8006268530803F58033B3FBF2F39BB2002036
:1022D800CDE701200023CAE7FFF788FB636800EB1E
:1022E8005300B0FBF3F080B2E860002038BDFFF780
:1022F80093FB636800EB5300B0FBF3F080B2E86037
:10230800002038BD6268530803F5F40303F59053C1
:10231800B3FBF2F39BB2EB60002038BDFFF758FA2D
:10232800636800EB5300B0FBF3F080B2E860002074
:1023380038BD6268530803F50043B3FBF2F39BB260
:10234800EB60002038BD012038BD00BF00380140D7
:102358000044004000480040004C0040005000404D
:10236800436A13F0010F06D00268536823F4003360
:10237800816A0B435360436A13F0020F06D0026868
:10238800536823F48033C16A0B435360436A13F0E4
:10239800040F06D00268536823F48023016B0B43B3
:1023A8005360436A13F0080F06D00268536823F499
:1023B8000043416B0B435360436A13F0100F06D080
:1023C8000268936823F48053816B0B439360436ADC
:1023D80013F0200F06D00268936823F40053C16BF2
:1023E8000B439360436A13F0400F0AD002685368A6
:1023F80023F48013016C0B435360036CB3F5801F07
:102408000BD0436A13F0800F06D00268536823F498
:102418000023816C0B43536070470268536823F4B0
:10242800C003416C0B435360EBE72DE9F0410546CF
:102438000F4616469846069C2B68DB6937EA030365
:102448000CBF01230023B3421ED1B4F1FF3FF3D0E8
:102458002CB1FDF7F9FEA0EB08008442ECD22A6803
:10246800136823F4D07313602A68936823F0010378
:102478009360202385F8693085F86A30002385F851
:1024880068300320BDE8F0810020BDE8F08130B558
:1024980083B004460023C366FDF7D6FE05462368CD
:1024A8001B6813F0080F0ED123681B6813F0040F84
:1024B80017D1202384F8693084F86A30002084F822
:1024C800680003B030BD6FF07E43009303460022DE
:1024D8004FF400112046FFF7A8FF0028E4D003209E
:1024E800EFE76FF07E4300932B4600224FF4800104
:1024F8002046FFF79AFF0028DBD00320E1E778B3F6
:1025080010B5044690F869300BB3242384F8693079
:102518002268136823F0010313602046FFF7D2FDF9
:1025280001281FD0636ABBB92268536823F490431B
:1025380053602268936823F02A0393602268136823
:1025480043F0010313602046FFF7A1FF10BD80F898
:10255800683000F0E1FDD8E72046FFF701FFE3E728
:102568000120704710BD90F86930DBB2212B01D0F3
:1025780002207047B0F852309BB293B18368B3F52C
:10258800805F1AD00268C36C591CC1641B7813851C
:10259800B0F852309BB2013B9BB2A0F852300020F9
:1025A80070470268136823F0800313600268136899
:1025B80043F040031360002070470369002BE1D10A
:1025C800C36C02681B88C3F308031385C36C02330A
:1025D800C364DDE708B501680B6823F040030B60AE
:1025E800202380F8693000F0FFFD002008BDB0F816
:1025F8005C2090F86A30DBB2222B06D0026893691F
:1026080043F0080393610220704710B503689B8C60
:102618009BB28168B1F5805F0FD0416D4C1C446559
:10262800D2B21A400A70B0F85A309BB2013B9BB242
:10263800A0F85A305BB1002010BD01690029ECD127
:10264800416D1A400A80436D02334365EBE7026827
:10265800136823F4907313600268936823F00103EE
:102668009360202380F86A3000F0AAFD002010BD96
:1026780038B504460268D369116813F00F0505D10F
:1026880013F0200F02D011F0200F60D19068002DB8
:1026980072D010F0010502D111F4907F6CD013F0C4
:1026A800010F07D011F4807F04D001201062E26E80
:1026B8000243E26613F0020F07D035B12268022008
:1026C8001062E26E42F00402E26613F0040F07D0D3
:1026D80035B1226804201062E26E42F00202E2661E
:1026E80013F0080F09D011F0200F00D12DB1226886
:1026F80008201062E26E0243E266E26E002A4DD0C4
:1027080013F0200F02D011F0200F23D1E36E13F045
:10271800080F04D123689B6813F0400F26D0204689
:10272800FFF747FC23689A6812F0400F1AD09A689E
:1027380022F040029A60636E83B1234A5A63606E46
:10274800FEF7DEF950B3606E436B984738BDFFF76C
:102758004EFF38BD2046FFF74AFFD7E72046FFF770
:10276800A5FC38BD2046FFF7A1FC38BD2046FFF781
:102778009DFC0023E36638BD13F4801F02D010F4DB
:10278800800F0CD113F0800F02D011F0800F12D1FE
:1027980013F0400F02D011F0400F10D138BD4FF4A4
:1027A80080131362202384F8693084F86A30204645
:1027B80000F00CF838BD2046FFF7D5FE38BD20469E
:1027C800FFF708FFEAE700BFB720000870470000DE
:1027D8000A4A11680A4B83F82210107C83F82100FA
:1027E800022306E09A1E0749895C054A1A441174B7
:1027F8000133821C9342F5DB00BF7047380100208B
:10280800600000201801002008B50246024903486C
:10281800FFF7DDFB08BD00BF70000020E0010020CD
:1028280008B5024602490348FFF7F7FB00BF08BD99
:102838003C000020E001002008B5044B044A05498B
:102848000548FDF79EFE00B100BF08BD1401002039
:102858007000002020010020E000002010B50B4B84
:102868000B4ADA620B4A1A630B4A5A630B4A9A6399
:10287800002483F8224083F82040082000F0C4F99F
:10288800074B1C600748FFF711FA10BD60000020D5
:10289800112800082928000841280008D92700081D
:1028A80020010020A00100200122244B1A70244B93
:1028B80019784B1E234AD35CC12B03D000221F4B2F
:1028C8001A70704782B00139C9B200238DF80730F9
:1028D8000A4601E0013AD2B21A4B9B5CC02B0ED0DB
:1028E8009DF807300133DBB28DF807309DF80730CB
:1028F800DBB20C2BEED90020104B1870EAE70F4B17
:102908001B78ABB100220BE09DF80730D0B21B1A40
:10291800DBB2CB1ADBB20B48C05C0B4B98540132CC
:102928009DF80730DBB29A42EEDD0122074B1A70A0
:102938000022024B1A7002B0704700BFA8000020A6
:102948002E00002050020020600000202C000020F3
:10295800F0B4334B9D785A7802F00704013483F8B9
:102968002040C2F3C30183F8231002F08701597095
:10297800022C00D900BF12F0800F0DD10222284B83
:102988005A6200200021274BC3E90001244B5B6AEF
:10299800022B14D000231FE00122214B5A62F0E7DA
:1029A8001F4AD05C00211F4AD2E90067801979418B
:1029B800C2E900010133221D9342F1DB0EE000233E
:1029C800F9E7174AD05C0021164AD2E90067801956
:1029D8007941C2E900010133032BF2DD114BD3E940
:1029E800000100F00F000021C3E900010C4A92F831
:1029F80023000021D3E90023994208BF904204D064
:102A08000022074B5A62F0BC7047054B5B6A022BE9
:102A1800F9D1054B1D60024A92F820201A61F2E7AD
:102A280060000020500000202001002008B500238D
:102A380005E0D91C064A515C1A4411740133044A52
:102A480092F820209342F4DBFFF7F6FE08BD00BFA2
:102A58006000002008B5FFF7BBFE08BDF8B50020F0
:102A680000211C4BC3E900011B4BC0221A7493F8C8
:102A780022205A7493F821000146C21C1344C12233
:102A88001A74002300E001330A1D93420EDA8A1CEF
:102A98009342F8D0104A1A44147C00250D4AD2E912
:102AA8000067A4197D41C2E90045ECE7094AD2E96B
:102AB800004504F00F040025C2E90045831CD2E953
:102AC8000045054A13441C74D36A0430C0B29847C1
:102AD800F8BD00BFB00000206000002008B5144B0E
:102AE8001B7853B9134B1B786BB9134B1B7883B9FD
:102AF800124B5B6A022B14D008BDFFF7D5FE0022EB
:102B08000B4B1A70EEE7FFF723FF0022094B1A70F0
:102B1800EBE7FFF79FFFFFF7A1FF0022064B1A70B4
:102B2800E6E7FFF783FF0022044B5A62E4E700BFA1
:102B3800500300202C0000202D0000206000002001
:102B480008B50D480D4B03602823436000238360BC
:102B5800C3604FF4A02202614361037601224276EA
:102B68008276C27603774377FDF788FB00B908BD04
:102B780000F0E4F9FBE700BFE0000020006400403B
:102B880010B588B000230393049305930693079325
:102B980002681C4B9A4201D008B010BD03F5D63329
:102BA800DA6942F00072DA61DA6902F000720192C1
:102BB800019A5A6942F400325A615B6903F400339E
:102BC8000293029B4FF4C0530393022404940323FB
:102BD80006930923079303A94FF09040FDF7B6FF2A
:102BE800002221461320FDF737FF1320FDF766FF6B
:102BF800002201211420FDF72FFF1420FDF75EFFAE
:102C0800CAE700BF0064004010B504461948FDF744
:102C180087FC10BB184900234B618B610122CA61F4
:102C28000B604B608B60CB600B610A620E234B62BA
:102C38001048FDF7C9FB98B90E48FDF743FC90B959
:102C480003210C48FDF7ACFD80B90C4B00225A60FB
:102C5800DA609A601C611A7510BD00F06FF9D9E747
:102C680000F06CF9E8E700F069F9E9E700F066F9C7
:102C7800EBE700BFE0000020B800002020010020A2
:102C880000BF704708B500BF064B074A0021FDF793
:102C9800EDFC18B90122054B1A7008BD00F04EF979
:102CA80008BD00BF18010020380100202D000020B9
:102CB80030B589B0002403940494059406940794CD
:102CC800174B5A6942F400125A615A6902F4001209
:102CD8000092009A5A6942F480225A615A6902F4B1
:102CE80080220192019A5A6942F400325A615B6962
:102CF80003F400330293029B0A4D22464FF48041AD
:102D08002846FDF7F3FF4FF4804303930123049310
:102D18000594069403A92846FDF718FF09B030BDAD
:102D2800001002400004004808B51248124B036026
:102D3800124B4360002383600122C2600361436138
:102D48008361C3610362FEF7BCF850B900210948EA
:102D5800FEF7DAF940B900210648FEF703FA30B960
:102D680008BD00F0EBF8F1E700F0E8F8F3E700F051
:102D7800E5F8F5E754010020005400400E09002052
:102D880010B588B000230393049305930693079323
:102D98000268134B9A4201D008B010BD114C636908
:102DA80043F480236361636903F480230193019BE7
:102DB800C02303931223049301230593032306934B
:102DC8000423079303A90848FDF7C0FEE36943F409
:102DD8000013E361E36903F400130293029BDBE74A
:102DE80000540040001002400004004800B585B0BF
:102DF80020F00F035BB243F00C0143F0080300011D
:102E080040B240F00C0240F008008DF80C108DF82C
:102E18000D308DF80E208DF80F00642300930423E5
:102E280003AA7E210448FEF7ABF80A20FDF712FA40
:102E380005B05DF804FB00BF5401002010B582B056
:102E4800094B93E8030000908DF80410002406E075
:102E580002AB234413F8080CFFF7C8FF0134042C15
:102E6800F6D902B010BD00BFB832000830B59FB027
:102E78002822002114A800F007FA00240F941094C7
:102E88001194129413943C222146684600F0FCF9F0
:102E98000225149501231893102319931B954FF4B9
:102EA80060131D9314A8FEF789F90F230F9310954B
:102EB80011944FF480631293139429460FA8FEF7D8
:102EC800BFFC242300934FF480230493079468469F
:102ED800FEF7B8FD1FB030BD00B583B0FDF796F919
:102EE800FFF7C4FFFFF7E4FE00F0FAF8FFF728FE4B
:102EF800FFF71AFF00F0ACF832228DF807200D4BCF
:102F0800312119705A7033229A703422DA703522BE
:102F18001A7136225A7137229A713822DA71FFF7FC
:102F28009DFC0022044B1A70FFF788FFFFF7D6FDBF
:102F380000BFFBE70C010020500300207047000091
:102F480082B00A4B9A6942F001029A619A6902F0CA
:102F580001020092009ADA6942F08052DA61DB6974
:102F680003F080530193019B02B0704700100240A8
:102F78007047FEE7FEE7FEE7FEE7704770477047D9
:102F880008B5FDF755F908BD08B50248FDF725FC59
:102F980008BD00BFE000002008B50248FDF71DFC91
:102FA80008BD00BFE000002008B50248FFF760FB3D
:102FB80008BD00BFE001002008B50748FEF787FEFE
:102FC800012206490648FFF728F84FF480410548D2
:102FD800FDF791FE08BD00BFA00100203C000020C5
:102FE800E0010020000400481549D1F8883043F476
:102FF8007003C1F88830134B1A6842F001021A6056
:103008005868114A02405A601A6822F0847222F401
:1030180080321A601A6822F480221A605A6822F4F0
:10302800FE025A60DA6A22F00F02DA62186B074A67
:1030380002401A6300229A604FF000638B60704769
:1030480000ED00E0001002400CC07FF8CCFC00FF4F
:1030580000B585B000230193029303930E480F4AED
:1030680002600222426083605A22C2608361FEF7D6
:1030780057FF50B900230193039301A90648FEF7AF
:1030880069FF28B905B05DF804FBFFF757FFF1E7C2
:10309800FFF754FFF6E700BFA00100200010004032
:1030A80002680E4B9A4200D0704700B583B003F512
:1030B8000033DA6942F01002DA61DB6903F01003C9
:1030C8000193019B002203213620FDF7C5FC362021
:1030D800FDF7F4FC03B05DF804FB00BF00100040EE
:1030E80008B50B480B4B03604FF4E13343600023F2
:1030F8008360C36003610C2242618361C361036220
:103108004362FFF7FCF900B908BDFFF717FFFBE7BB
:10311800E001002000480040F0B589B00023039387
:1031280004930593069307930268224B9A4201D0B1
:1031380009B0F0BD03F5E433DA6942F48022DA61BC
:10314800DA6902F480220092009A5A6942F4001265
:103158005A615A6902F400120192019A5A6942F4BA
:1031680080225A615B6903F480230293029B4FF427
:10317800004303930224049403270697072607961F
:1031880003A90D48FDF7E2FC4FF480630393049410
:10319800002505950697079603A90848FDF7D6FC6C
:1031A8002A4621462720FDF757FC2720FDF786FCF5
:1031B800BEE700BF00480040001000480004004877
:1031C8000122054B1A70054A1378591C1170044ADC
:1031D8001178044AD1547047500300202E00002073
:1031E8003C0000205002002000BF7047DFF834D0B8
:1031F800002103E00C4B5B58435004310B480C4B47
:1032080042189A42F6D30B4A02E0002342F8043BE4
:10321800094B9A42F9D3FFF7E7FE00F011F8FFF7E0
:103228005BFEFEE700A0002000330008000000203D
:103238000C0000201000002054030020FEE70000CE
:1032480070B50D4E0D4CA41BA4100025A54209D144
:103258000B4E0C4C00F020F8A41BA4100025A5422E
:1032680005D170BD56F8253098470135EEE756F878
:10327800253098470135F2E7F8320008F83200089F
:10328800F8320008FC32000802440346934200D199
:10329800704703F8011BF9E7F8B500BFF8BC08BC94
:1032A8009E467047F8B500BFF8BC08BC9E467047FC
:1032B8003332280F0100000002030405060708093D
:1032C8000A0B0C0D0E0F1010010203040506070867
:1032D800090A0B0C0D0E0F10000000000000000082
:1032E80001020304060708090000000001020304A4
:0432F800AD0100081C
:0432FC00890100083C
:0C330000010000001000000000127A0024
:04000005080031F5C9
:00000001FF
