:020000040800F2
:1000000000A00020BD310008312F0008352F000866
:10001000392F00083D2F0008412F00080000000084
:10002000000000000000000000000000452F000854
:10003000492F0008000000004D2F0008512F000834
:100040000D3200080D3200080D3200080D32000894
:100050000D3200080D3200080D3200080D32000884
:100060000D3200080D3200080D3200080D32000874
:100070000D3200080D3200080D3200080D32000864
:100080000D3200080D3200080D320008552F00080F
:10009000612F00080D3200080D3200080D320008F3
:1000A0000D3200080D3200080D3200080D32000834
:1000B0000D3200080D3200080D3200080D32000824
:1000C0000D3200080D3200080D3200080D32000814
:1000D0000D3200080D3200080D3200086D2F0008A7
:1000E0000D3200080D3200080D3200080D320008F4
:1000F0000D3200080D3200080D3200080D320008E4
:100100000000000000000000000000000D320008A8
:100110000D3200080D320008792F00080D3200085A
:100120000D3200080D3200080D3200080D320008B3
:100130000D3200080D320008000000000000000031
:100140000D3200080D3200080D32000800000000DA
:10015000000000000000000000000000000000009F
:1001600000000000000000000D3200080D32000801
:100170000D32000800000000000000000000000038
:08018000000000000D32000830
:1001880010B5054C237833B9044B13B10448AFF3C9
:1001980000800123237010BD100000200000000023
:1001A800B432000808B5034B1BB103490348AFF349
:1001B800008008BD0000000014000020B4320008D0
:1001C80038B50E4A0E4B12781B6805464FF47A7004
:1001D800B0FBF2F0B3FBF0F000F02CFC08B90F2DE7
:1001E80001D9012038BD0446024629464FF0FF30A8
:1001F80000F0DEFB034B20461D6038BD00000020E8
:100208000800002004000020074A08B5136843F0DE
:1002180010031360032000F0B9FB0020FFF7D0FFA4
:1002280002F06AFE002008BD00200240034A044B89
:1002380011681B780B441360704700BF3000002022
:1002480000000020014B1868704700BF30000020F4
:1002580038B50446FFF7F6FF631C054602D0044B89
:100268001B781C44FFF7EEFF401B8442FAD838BDC8
:100278000000002000287CD090F8203070B504469B
:10028800002B73D02268136823F002031360FFF772
:10029800D9FF054604E0FFF7D5FF401B0A285CD8C4
:1002A80023685A689107F6D41A6842F001021A6066
:1002B800FFF7C8FF054604E0FFF7C4FF401B0A2804
:1002C8004BD823685A68D207F6D5227E012A1A68C5
:1002D8000CBF42F0800222F080021A60627E012A7E
:1002E8001A680CBF42F0400222F040021A60A27E57
:1002F800012A1A680CBF42F0200222F020021A607C
:10030800E27E012A1A680CBF22F0100242F01002A5
:100318001A60227F012A1A680CBF42F0080222F0F4
:1003280008021A60627F012A1A680CBF42F00402B0
:1003380022F004021A60A268E668256960696168AB
:1003480032432A43024301390A4301250021DA6175
:100358000846616284F8205070BD636A052243F440
:1003680000336362012084F8202070BD02F0E0FBB6
:1003780088E70120704700BF90F82030013B012B2F
:1003880005D9436A43F48023436201207047036818
:100398004869D3F8002242F001022DE9F041CE6904
:1003A800C3F80022012500F01F02D3F81C4205FA09
:1003B80002F2D5432C40C3F81C42B6B3012E15D126
:1003C800D3F80C620F68B1F804C0B1F80CE003EB85
:1003D800C00442EA06008E68C3F80C024CEA0747DC
:1003E8004EEA0646C4F84072C4F844628869A0BB65
:1003F800D3F804022840C3F804020869A8BBD3F85C
:1004080014022840C3F81402096A012904D1D3F858
:100418001C120A43C3F81C22D3F8002222F001025E
:10042800C3F800220020BDE8F081D3F80C72CE6832
:10043800B1F804E00C8803EBC00805EA07008F68F0
:10044800C3F80C0288694EEA064644EA0744C8F82D
:100458004062C8F844420028CAD0D3F804021043C6
:10046800C3F8040208690028C9D0D3F8140210435D
:10047800C3F81402C8E700BF38B590F82030012B44
:1004880005D0436A43F400234362012038BD026863
:10049800022380F82030136823F001031360044618
:1004A800FFF7D0FE054604E0FFF7CCFE401B0A2804
:1004B80007D823685B6813F00103F5D16362184617
:1004C80038BD636A052243F400336362012084F86F
:1004D800202038BD38B590F82030022B05D0436A6B
:1004E80043F480134362012038BD0268136843F067
:1004F800010313600446FFF7A5FE054604E0FFF775
:10050800A1FE401B0A280CD823685A68D207F6D5E2
:100518001A68012122F002021A60002084F82010D3
:1005280038BD636A052243F400336362012084F80E
:10053800202038BDF0B490F820400568013C012C1B
:10054800AE6806D9436A43F4802343620120F0BCB5
:10055800704716F0E05F2ED0C6F30166032E31D047
:100568000120B04018608B6893BB0C68C86806F11E
:1005780018031B0140EA4450E850087D0969360118
:10058800AB190128C3F8841105D1D3F8841141F4BB
:100598008071C3F8841135445168C5F88C1112680C
:1005A800C5F88821D3F8802142F001020020C3F861
:1005B8008021F0BC7047436A43F400134362F0BCE7
:1005C80001207047436A43F4000343620120BEE7F9
:1005D800CF684C6806F118003B43000143EAC403A6
:1005E8002B50CAE72DE9F04190F82040013C012C3E
:1005F80006D9436A43F4802343620120BDE8F081B1
:10060800056800295AD02C69A4075AD00C012E1964
:10061800D6F8B07107F004079760002F5FD1D6F8BD
:10062800B0717F0D1760D6F8B0C1D6F8B4E1D6F82E
:10063800B471D6F8B4612544CCF3400CD5F8B88130
:10064800C2F80CC00EF00F05C7F30727360C15616A
:100658009761566183F8008002682244D2F8B82175
:10066800120A5A7002682244D2F8B821120C9A7001
:1006780002682244D2F8B821120EDA7002682244C5
:10068800D2F8BC211A7102682244D2F8BC21120A9D
:100698005A7102682244D2F8BC21120C9A7102687D
:1006A8001444D4F8BC21120EDA71026881B9D368F7
:1006B80043F020030846D360BDE8F081EC68A60744
:1006C800A4D1436A43F4001343620120BDE8F081DA
:1006D800136943F0200313610020BDE8F081D6F8C8
:1006E800B071FF0857609EE790F82030013B012B5E
:1006F80005D9436A43F480234362012070470268A6
:100708005369194351610020704700BF704700BF0B
:10071800704700BF704700BF704700BF704700BFF9
:10072800704700BF704700BF704700BF704700BFE9
:10073800704700BF704700BF2DE9F84F03685C6938
:10074800D3F804809F68D3F80CB0D3F81090D3F88E
:1007580018A014F00105064625D017F0010540F051
:100768009F804FF480414FF40052F8050DD533684F
:100778004FF480709860BB0500F1CA80780500F1DD
:10078800DA803B0540F1EB800D46F8030BD5336862
:100798004FF48032B9039A6000F1B6807A0340F1D1
:1007A800CC8045F40045270702D51BF0100F71D106
:1007B800600703D51BF0080F40F08280A10704D51D
:1007C8003368DB689A0740F09080630602D519F019
:1007D800100F59D1A70603D519F0080F40F08980EA
:1007E800E00604D533681B69990740F08980A203A5
:1007F80002D518F0100F6AD1E30302D518F0080FDC
:100808006CD1270405D518F0040F0BD133680422E6
:100818005A602DB1736A1D4375623046FFF78AFF2F
:10082800BDE8F88FE00504D51AF0010F18BF45F0B0
:100838000105A10504D51AF0020F18BF45F00205FD
:10084800620504D51AF0040F18BF45F00405230506
:10085800DCD51AF0700AD9D0BAF1300F00F08D80CB
:1008680070D9BAF1500F00F08580BAF1600F00F02E
:100878008780BAF1400F01D145F0400533689A6985
:1008880022F070029A61C2E73368102245F480654D
:100898001A619FE73368102245F40075DA6087E72C
:1008A80001229A60BB0737D47D073DD417F00805AD
:1008B80059D04FF4A0414FF440524FF4805554E7BB
:1008C80033680822DA603046FFF72AFF76E7336894
:1008D80010225A603046FFF729FF8DE73368082257
:1008E8005A603046FFF724FF8BE7304602F0A2F942
:1008F8006BE7336808221A613046FFF715FF6FE788
:100908003046FFF70FFF72E73046FFF701FF4AE76F
:100918003046FFF7FBFE38E702F08AF900254FF46E
:1009280080414FF4005220E74FF490414FF4205299
:100938004FF4006519E7154627E73B030BD545F447
:10094800803530E7BAF1100F1DD0BAF1200F95D1DC
:1009580045F0100592E73046FFF7E0FE23E7304602
:10096800FFF7DAFE11E7FFF7D5FE4FF480414FF4A9
:100978000052FAE645F0800580E745F020057DE75E
:1009880045F480757AE745F0080577E7074AD368A4
:100998004FF6FF010B40000243F0BF6300F4E06034
:1009A80043F400330343D360704700BF00ED00E019
:1009B800184B70B4DC68C4F30224C4F10706042E93
:1009C80004F1040328BF0426062B17D9033C01258C
:1009D800A540013D2A400123B340013B1940A140F5
:1009E800002841EA02010CDB00F1604000F561409B
:1009F8000901C9B280F8001370BC70470022144680
:100A0800E9E7054B00F00F0009010344C9B2197664
:100A180070BC704700ED00E0FCEC00E000F01F0146
:100A280001234009024A8B4042F82030704700BF3A
:100A380000E100E00138B0F1807F0ED2084B10B41D
:100A4800084C5860F02084F8230000220721104643
:100A58009A6019605DF8044B70470120704700BF29
:100A680010E000E000ED00E090F82120022AF8B53F
:100A780003D0042282630120F8BD0268016C146867
:100A8800C76B466B24F00E0414601468012524F02B
:100A98000104146005FA01F10024796080F82150FE
:100AA80080F8204016B1B0472046F8BD3046F8BD62
:100AB8008C460968002900F0DC802DE9F04FDFF84A
:100AC800C8E183B000254FF0010879E04FEA4509F5
:100AD8000323D0F800B003FA09F3DB4304F003065C
:100AE8000BEA030B06FA09F60AF1FF3A46EA0B0687
:100AF800BAF1010F066040F29880C668DCF8082059
:100B0800334002FA09F21A43E300C26054D5594B44
:100B1800584A9B6943F001039361936925F00309DF
:100B280009F1804903F0010309F58039019305F0C3
:100B38000303019AD9F808209B000F269E40B0F1C4
:100B4800904F22EA060200F087804B4EB04200F038
:100B580085804A4EB04200F08480494EB04200F091
:100B68008480484EB0420CBF0426052606FA03F3DB
:100B78001343C9F80830DEF80030FA43E60354BFDF
:100B880013403B43CEF80030DEF80430A60354BFD0
:100B980013403B43CEF80430DEF80830E60254BF79
:100BA80013403B43CEF80830DEF80C30A40254BFA3
:100BB80013403B43CEF80C30013531FA05F348D0E9
:100BC80008FA05F212EA0107F6D0DCF8044024F02E
:100BD800100ABAF1020F7FF479AF4FEAD50900EB9A
:100BE800890905F00703D9F820609B004FF00F0A28
:100BF8000AFA03FB26EA0B0ADCF8106006FA03F38C
:100C080043EA0A03C9F820304FEA45090323D0F81C
:100C180000A003FA09F3DB4304F003060AEA030A17
:100C280006FA09F646EA0A060660866806EA030A2C
:100C3800DCF80C6006FA09F646EA0A068660D0F87F
:100C480004A0C4F300162AEA0202AE401643466026
:100C580053E703B0BDE8F08F002389E708FA03F3F0
:100C680086E7022606FA03F382E7032606FA03F369
:100C78007EE7704700100240000400480008004862
:100C8800000C004800100048000401400AB98162C5
:100C980070478161704700BF43695940416170479F
:100CA80070B504460D4616466B1C226828D1936918
:100CB800980728D49369D906F9D593699D06FCD578
:100CC80010212023D161D3619369980744BF002381
:100CD80093629369D90703D4936943F0010393613D
:100CE80053681F4904260B4020250021536001202A
:100CF800666484F8401084F8415084F8421070BD4E
:100D080093699B0701D5002070BD9369D90619D452
:100D180025B1FFF797FA801B8542C5D2636C202165
:100D280000220B43636484F8402084F841100320B8
:100D380084F8422070BD4DB1FFF784FA801B8542CC
:100D480004D3226893699B06F5D5B9E700232022CE
:100D580084F8412084F8403084F84230012070BD86
:100D680000E800FE70B5044616460D4629B93BE07A
:100D7800FFF768FA801B85423DD32268936998067D
:100D880046D49369D906F3D5681C22D1936999068C
:100D9800FCD510212023D161D3619369980744BF02
:100DA800002393629369D90703D4936943F001033D
:100DB800936153681C4904260B4020250021536089
:100DC8000120666484F8401084F8415084F8421089
:100DD80070BD93699B06DCD4E5B1FFF733FA801B3D
:100DE800854217D32268CFE7026893699B060FD420
:100DF8009369DB06C8D4636C202100220B4363642B
:100E080084F8402084F84110032084F8422070BD03
:100E1800002070BD0023202284F8412084F840304F
:100E280084F84230012070BD00E800FE002851D04F
:100E3800F8B590F84130044603F0FF02002B40D08B
:100E48002368E068242284F841201968626821F048
:100E5800010122F0706219601A619A68012822F46F
:100E680000429A60A26831D042F4044202289A6093
:100E780004BF4FF400625A6059682269D4F814E03C
:100E8800A769E069266A41F0007141F400415960A0
:100E9800DD6842EA0E0242EA0722304325F40045A3
:100EA800DD60DA6018601968002241F00101202530
:100EB80019601046626484F84150226384F8422025
:100EC800F8BD80F8402001F035FFB9E742F4004250
:100ED8009A60D1E7012070472DE9F04190F8414030
:100EE800202C02D00220BDE8F08190F84040012C6F
:100EF800F8D09846012380F8403017460D4604463E
:100F0800FFF7A0F9064604E0FFF79CF9801B1928B3
:100F180062D82368986910F40040F5D1212284F83A
:100F28004120102284F842206064A4F82A80628D4F
:100F3800676292B2FF2A60636DD95A684849494886
:100F4800C5F30905294302400A43FF2121855A6058
:100F580045F0FF77DFF8148147F48037638D0699F1
:100F68009BB232462046002B67D0FFF799FE002837
:100F78004BD1636A21685A1C62621B788B62628D4E
:100F8800238D013A013B92B29BB262852385002BE7
:100F9800E4D1638D9BB2002BE0D0069B01330ED1C8
:100FA8008B691A06FCD5638D9BB2FF2B1FD94B6842
:100FB80003EA08033B43FF2222854B60CEE78B6997
:100FC8001B06F0D4069B3BB1FFF73CF9069B801B40
:100FD800834201D32168E1E70023202284F84120DD
:100FE80084F8403084F842300320BDE8F081628DF7
:100FF800486892B2D3B245EA034343F0007300EA6B
:101008000800034322854B60A8E7636C042BEBD1EF
:101018000120BDE8F081618D124F5868C5F30905BC
:1010280089B245F00242384042F40052CFB242EA57
:101038000742024321855A608AE7FFF793FE00289A
:10104800E3D12368084D2021D9615A682A405A60A3
:1010580084F8411084F8400084F84200BDE8F0812B
:101068000020FF81009800FC00E800FE009C00FCC6
:1010780090F84130DBB2202B01D0022070470246A5
:1010880090F840000128F8D010B41068242482F8A1
:101098004140046824F001040460046824F4805486
:1010A80004600468214301600168002441F00101E3
:1010B8000160204682F8404082F841305DF8044BD8
:1010C800704700BF90F84130DBB2202B01D00220DE
:1010D8007047024690F840000128F8D010B4106814
:1010E800242482F84140046824F001040460046860
:1010F80024F4706444EA012101600168002441F08D
:1011080001010160204682F8404082F841305DF8D4
:10111800044B7047002800F0CB822DE9F0430368A8
:10112800D90783B0044643D5B7494A6802F00C0290
:10113800042A00F0B0814A6802F00C02082A00F084
:10114800A6816368B3F5803F00F01882002B00F099
:101158006181B3F5A02F00F09E82AB4B1A6822F490
:1011680080321A601A6822F480221A60A64DA2689A
:10117800EB6A23F00F031343EB62FFF763F84FF4B6
:1011880000380746012605E0FFF75CF8C01B642815
:1011980000F2798198FAA8F32A6898FAA8F3B3FAC2
:1011A80083F303F01F0306FA03F31342ECD023681A
:1011B8009F0742D5944A516811F00C0F00F0C9807E
:1011C800516801F00C01082900F0BF802269002A4B
:1011D80000F0AE81012292FAA2F3B3FA83F303F18D
:1011E800845303F584139B0016461A60FFF72AF808
:1011F8004FF002080746844D05E0FFF723F8C01BAF
:10120800022800F2408198FAA8F32A6898FAA8F30D
:10121800B3FA83F303F01F0306FA03F31342ECD087
:101228002968F82292FAA2F26369B2FA82F221F0EE
:10123800F80193400B432B6023681D0721D45807FE
:101248004DD5714BDA69D10040F1C1804FF00008EB
:101258006E4D2B68DA0540F10681E368012B00F03A
:101268009381002B00F02E81052B674B1A6A00F042
:10127800B58122F001021A621A6A22F004021A6287
:1012880087E1A269002A7BD0012292FAA2F1604B81
:101298005D4EB1FA81F10B449B0015461A60FEF7CA
:1012A800D1FF4FF00208074605E0FEF7CBFFC01B51
:1012B800022800F2E88098FAA8F398FAA8F398FAB6
:1012C800A8F3726A98FAA8F3B3FA83F303F01F033A
:1012D80005FA03F31342E8D023685807B1D4E36949
:1012E8007BB3494D6A6802F00C02082A44D0022BED
:1012F8004FF0807300F07A8193FAA3F3B3FA83F383
:1013080003F1845303F584139B0000221A60FEF74F
:1013180099FF4FF000740746012605E0FEF792FF9B
:10132800C01B022800F2AF8094FAA4F32A6894FA4A
:10133800A4F3B3FA83F303F01F0306FA03F313428B
:10134800ECD1002003B0BDE8F0835268D6033FF526
:101358003DAF022292FAA2F12B49086892FAA2F252
:10136800B2FA82F202F01F02012101FA02F20242ED
:1013780039D022698A4236D0012003B0BDE8F08313
:10138800012595FAA5F1224B1F4EB1FA81F10B44C4
:101398009B004FF002081A60FEF754FF074604E06E
:1013A800FEF750FFC01B02286DD898FAA8F398FAE8
:1013B800A8F398FAA8F3726A98FAA8F3B3FA83F331
:1013C80003F01F0305FA03F31342E9D184E7DA694E
:1013D80042F08052DA61DB6903F080530193019B8C
:1013E8004FF0010834E7084DF821286891FAA1F177
:1013F8006269B1FA81F120F0F8008A4002432A605C
:101408001D077FF51CAF3CE700100240007000404C
:1014180020819010A74D2B6823F480332B602B6814
:1014280023F480232B60EB6AA26823F00F03134395
:10143800EB62FEF707FF4FF400380746012604E089
:10144800FEF700FFC01B64281DD898FAA8F32A6885
:1014580098FAA8F3B3FA83F303F01F0306FA03F329
:101468001342EDD1A3E62B6843F480732B60FEF79B
:10147800E9FE06462B68DB053FF5EFAEFEF7E2FE18
:10148800801B6428F6D9032003B0BDE8F0834A68BE
:10149800D2037FF556AE4FF4003292FAA2F1854995
:1014A800086892FAA2F2B2FA82F202F01F0201214F
:1014B80001FA02F202423FF47BAE6268002A7FF42E
:1014C80077AE59E77B4D2B6A23F001032B622B6A19
:1014D80023F004032B62FEF7B5FE4FF0020907461E
:1014E800012613E099FAA9F36A6A99FAA9F3B3FAFB
:1014F80083F303F01F0306FA03F313420ED0FEF73B
:10150800A1FE41F28833C01B9842BCD899FAA9F3CE
:1015180099FAA9F3002BE5D02A6AE6E7B8F1000F9B
:101528003FF4DDAE634AD36923F08053D361D6E636
:10153800012595FAA5F3B3FA83F303F1845303F570
:1015480084139B004FF002081A60FEF77BFE594E89
:10155800074604E0FEF776FEC01B022893D898FAE7
:10156800A8F3326898FAA8F3B3FA83F303F01F03D9
:1015780005FA03F31342EDD123685EE64D4A13687A
:1015880043F480331360F1E54A4A136A43F00103D8
:101598001362FEF757FE4FF002090746454E012534
:1015A80014E099FAA9F3726A99FAA9F3B3FA83F3E2
:1015B80003F01F0305FA03F31342AFD1FEF742FE0F
:1015C80041F28833C01B98423FF65DAF99FAA9F300
:1015D80099FAA9F3002BE4D0326AE5E742F0040255
:1015E8001A621A6A42F001021A62D2E793FAA3F366
:1015F800B3FA83F303F1845303F584139B000022A9
:101608001A60FEF71FFE4FF000780746012605E036
:10161800FEF718FEC01B02283FF635AF98FAA8F36C
:101628002A6898FAA8F3B3FA83F303F01F0306FABB
:1016380003F31342ECD16A68636A216A22F47412D4
:101648000B4313436B604FF0807393FAA3F3B3FA21
:1016580083F303F1845303F584139B004FF0007464
:101668001E60FEF7EFFD134E0746012505E0FEF765
:10167800E9FDC01B02283FF606AF94FAA4F33268CE
:1016880094FAA4F3B3FA83F303F01F0305FA03F300
:101698001342ECD055E603F18043A3F53C331A68B6
:1016A80042F480221A601A6842F480321A605DE5BA
:1016B800012070470010024078B1654A136803F0B2
:1016C80007038B420BD2136823F007030B43136005
:1016D800136803F00703994201D00120704703689B
:1016E8002DE9F0419F0706D55A4C8568626822F0BB
:1016F800F0022A436260DE0704460D4630D5426890
:10170800012A00F09380022A0CBF4FF000730223D5
:1017180093FAA3F14F49086893FAA3F3B3FA83F352
:1017280003F01F03012101FA03F3034228D0494EB5
:10173800736823F0030313437360FEF783FD41F2DC
:101748008837804605E0FEF77DFDA0EB0800B8422B
:1017580069D87368626803F00C03B3EB820FF2D1A7
:101768003B4A136803F007039D420CD2136823F029
:1017780007032B431360136803F007039D4202D04D
:101788000120BDE8F0812368580706D53149E06893
:101798004A6822F4E06202434A60190707D52D4AD5
:1017A8002169536823F4605343EAC1035360294B0A
:1017B8005A6802F00C01082916D02749254BF02257
:1017C8005B6892FAA2F2B2FA82F203F0F003D34015
:1017D8002248234AC35C002021FA03F31360FEF772
:1017E800EFFC0020BDE8F0814FF4701191FAA1F1EF
:1017F800B1FA81F102F47010C8401A4CD96A235C1E
:101808000F2090FAA0F0B0FA80F001F00F01C1406B
:101818001548D203405C4ABF0F491449B1FBF0F1A7
:1018280001FB03F1CAE70320BDE8F0814FF4003360
:1018380093FAA3F10749096893FAA3F3B3FA83F378
:1018480003F01F0302FA03F30B427FF470AF97E72C
:10185800002002400010024000127A00F032000816
:1018680008000020CC320008DC32000800093D00E6
:10187800144A536803F00C01082921D14FF4701160
:1018880091FAA1F103F47010B1FA81F120FA01F193
:101898000D48D26A405C0F2191FAA1F1DB03B1FA3D
:1018A80081F102F00F024CBF084B094B22FA01F2FA
:1018B80008498A5C48BFB3FBF2F303FB00F07047AA
:1018C8000248704700100240CC32000800127A002B
:1018D80000093D00DC320008084B4FF4E0625B6809
:1018E80092FAA2F2B2FA82F203F4E063D340044916
:1018F800044ACB5C1068D840704700BF0010024013
:101908000033000808000020084B4FF460525B6861
:1019180092FAA2F2B2FA82F203F46053D340044975
:10192800044ACB5C1068D840704700BF00100240E2
:1019380000330008080000202DE9F0430446006841
:10194800C50383B03CD5824BDA69D00040F1B3803F
:10195800804D2B68D9054FF0000640F1BC807C4DC6
:101968002B6A13F4407320D0616801F440729342EB
:101978001CD0296A4FF4803321F4407093FAA3F203
:10198800754FB2FA82F23A4492004FF0010EC2F853
:1019980000E093FAA3F3B3FA83F33B449B000022DD
:1019A8001A60CB07286200F1AD806168684A136A43
:1019B80023F440730B431362002E40F09E8020688E
:1019C800C70706D5624AA168136B23F003030B43CC
:1019D8001363860706D55E4AE168136B23F4403328
:1019E8000B431363450706D5594A2169136B23F442
:1019F80040230B431363810606D5554AE169136BEF
:101A080023F010030B431363820306D5504AA16BDE
:101A1800536823F480030B435360430606D54C4AAE
:101A2800216A136B23F020030B431363070706D5C2
:101A3800474A6169136B23F440130B431363C606CB
:101A480006D5434AA169136B23F440030B43136380
:101A5800850506D53E4AE16A536823F400030B4323
:101A68005360010606D53A4A616AD36A23F4F873CB
:101A78000B43D362C20506D5354AA16AD36A23F45B
:101A880078530B43D362C3040DD410F4005007D02D
:101A98002F4A616B136B23F400730B43136300200D
:101AA80003B0BDE8F0832A4A216B136B23F48073DB
:101AB8000B431363E9E7DA69264D42F08052DA6195
:101AC800DB6903F080530193019B2B68D9054FF024
:101AD80001063FF544AF2B6843F480732B60FEF793
:101AE800B1FB07462B68DA053FF539AFFEF7AAFBCD
:101AF800C01B6428F6D90320D2E7D36923F08053AA
:101B0800D3615CE77746FEF79DFB4FF002098046FC
:101B180015E099FAA9F36A6A99FAA9F3B3FA83F373
:101B280003F01F0307FA03F313427FF43EAFFEF7F7
:101B380089FB41F28833A0EB08009842DBD899FA78
:101B4800A9F399FAA9F3002BE3D02A6AE4E700BFC6
:101B5800001002400070004000819010002800F042
:101B68008A80F8B590F83D30044603F0FF02002B58
:101B780053D023684149022284F83D208B421A68D9
:101B880060D0B3F1804F64D0A1F594318B4222D05C
:101B980001F580618B421ED001F596318B421AD037
:101BA80001F540618B423DD001F580618B4239D00F
:101BB80001F580618B4235D0A569E068616822F043
:101BC80080022A431A60D862996201225A61002071
:101BD80084F83D20F8BDA1682669A069E7686568B2
:101BE80022F070020A4322F440722549324322F05F
:101BF800800202438B421A60DF629D620AD0214A4A
:101C0800934207D002F58062934203D002F58062C6
:101C18009342DAD162691A63D7E780F83C2001F071
:101C28001DFAA6E72069A16922F44072024322F056
:101C380080020A431A60E268DA6262689A6262693C
:101C48001A63C2E7A5682069A16922F070022A43D5
:101C5800EAE7A6682069A169E768656822F070026A
:101C6800324322F44072024322F080020A431A608F
:101C7800DF629D62C3E70120704700BF002C01406E
:101C880000340140004001400368DA6842F0010274
:101C9800DA601A6842F001021A600020704700BF3B
:101CA800704700BF704700BF704700BF704700BF54
:101CB800704700BF03681A69910710B5044602D53A
:101CC800DA68920765D41A69520702D5DA685007AC
:101CD8004CD41A69110702D5DA68120734D41A6984
:101CE800D00602D5DA68D1061ED41A69D20702D501
:101CF800DA68D0076BD41A69110602D5DA681206B9
:101D08006DD41A69D00502D5DA6811066FD41A693C
:101D1800520602D5DA68500651D41A69910602D5DE
:101D2800DA68920643D410BD6FF010021A61DB69BD
:101D3800082213F4407F227720466CD0FFF7B4FFC7
:101D4800002223682277D0E76FF008021A61DB6966
:101D580004229B07227720465AD1FFF7A3FF20468B
:101D6800FFF7A4FF002223682277B8E76FF0040288
:101D78001A619B69022213F4407F2277204644D1DE
:101D8800FFF790FF2046FFF791FF00222368227794
:101D98009FE76FF002021A619B6901229907027797
:101DA8002DD0FFF781FF0022236822778BE76FF0A1
:101DB800200220461A61BDE8104000F05DB86FF0BF
:101DC80040021A612046FFF773FF2368A5E76FF00A
:101DD80001021A612046FFF763FF23688BE76FF063
:101DE80080021A61204600F049F8236889E76FF4F9
:101DF80080721A61204600F043F8236887E7FFF7EE
:101E080051FF2046FFF752FFCDE7FFF74DFFBCE734
:101E1800FFF74AFFA6E7FFF745FF2046FFF746FF13
:101E28008EE700BF90F83C30012B1AD0026870B4DE
:101E3800104D53689468AA4216D005F50065AA4269
:101E480012D00E688D6823F0700324F080013343AC
:101E5800002429435360916080F83C40204670BCC0
:101E680070470223184670474D6823F470032B43CC
:101E7800E7E700BF002C0140704700BF704700BF74
:101E8800704700BF90F86930202B01D002207047BE
:101E9800C9B1C2B190F86830012BF7D030B4002333
:101EA8000568A0F852202124C36680F869402C6890
:101EB800C16444F08004A0F8502080F868301846C7
:101EC8002C6030BC70470120704700BF90F86A3022
:101ED800202B01D00220704749B342B390F86830F4
:101EE800012BF7D083684165B3F5805F4FF001019E
:101EF800A0F85820A0F85A2080F868101DD023B9FF
:101F08000369B3B17F23A0F85C3002680023222163
:101F1800C36680F86A10916880F8683041F0010162
:101F28009160116841F49071184611607047012062
:101F38007047FF23A0F85C30E7E70369002BF8D16E
:101F480040F2FF13A0F85C30DFE700BF704700BF26
:101F580008B5436A0022A3F85A201846A3F852206D
:101F6800FFF7F4FF08BD00BF0368DA69196870B5A8
:101F78000446100711D196065FD49868D50202D599
:101F8800400200F18880160602D50D0600F1948003
:101F9800500601D54A066CD470BD986810F0010649
:101FA8001D4655D0D00707D5C80505D501201862AC
:101FB800E06E40F00100E06690074FD53EB1022088
:101FC8001862E06E40F00400E06650074AD410073B
:101FD80003D5880658D4002E56D1E06E0028DBD0F1
:101FE800900602D58A0600F1A780E36E1B0704D489
:101FF800AE6816F0400600F0A8802B6823F49073B2
:102008002B60AB68202223F00103AB6084F86A20C0
:10201800AB685E064CD5AB68606E23F04003AB60DE
:10202800002845D0724B4363FEF71EFD0028B3D04D
:10203800606EBDE87040436B18478D069DD594F8D7
:102048006A20222A52D09A6942F008029A6170BD29
:1020580011F4907F92D0D007AED5A5E75007B6D53A
:10206800002EB4D004201862E06E40F00200E06652
:10207800ADE71A68202122F040021A60204684F851
:10208800691001F095F870BD08201862E06E40F004
:102098000800E066A1E720224FF48011196220466B
:1020A80084F8692084F86A20BDE8704000F07EBAA0
:1020B8002046FFF74BFF70BD94F86920212A7FF472
:1020C8006BAFB4F8522092B2002A5AD0A268B2F587
:1020D800805F68D0E26C511CE16412781A85B4F80C
:1020E8005230013B9BB2A4F8523070BDA2689B8C61
:1020F800B4F85C10B2F5805F9BB24BD0626D0B40B8
:10210800511C61651370B4F85A30013B9BB2A4F8B6
:102118005A30002B7FF440AF23681A6822F490727B
:102128001A609A68202122F001029A60204684F8F9
:102138006A1001F025F870BD94F86A20222A09D0A7
:102148009A6942F008029A614FE72046FFF7FEFEBF
:10215800E66670BDA0689A8CB4F85C10B0F5805F34
:1021680092B23BD0636D0A40591C61651A702368AE
:10217800B4F85A20013A92B2A4F85A20F2B11D4696
:1021880033E71A6822F080021A601A6842F04002A7
:102198001A6070BD2269002AB0D1626D0B4022F826
:1021A800023B6265AFE72269002A93D1E26C32F8FC
:1021B800021BC1F308011985E26490E71A6822F44A
:1021C80090721A609A68202122F001029A602046D3
:1021D80084F86A1000F0D4FF256806E72069002813
:1021E800C0D1606D0A4020F8022B6065C0E700BFCF
:1021F800591F0008436ADA0710B406D50168846AD3
:102208004A6822F4003222434A609C0706D50168D6
:10221800C46A4A6822F4803222434A60590706D5C4
:102228000168046B4A6822F4802222434A601A0734
:1022380006D50168446B4A6822F4004222434A608A
:10224800DC0606D50168846B8A6822F48052224332
:102258008A60990606D50168C46B8A6822F4005220
:1022680022438A605A0609D50168046C4A6822F438
:1022780080122243B4F5801F4A600BD01B0606D596
:102288000268816C536823F400230B4353605DF8A4
:10229800044B70474A68446C22F4C00222434A60E7
:1022A800ECE700BF002800F02981F8B590F8693004
:1022B800044603F0FF02002B3DD025686769D4F877
:1022C80010E0E169E668242384F869302A68A36885
:1022D80022F001022A60286843EA0E033B4320F4F7
:1022E800164020F00C000B4303432B606A68A36977
:1022F800276AA74822F4405232436A60AA683B43DF
:1023080022F4306213438542AB6000F09780A14B02
:102318009D4200F0A680A04B9D4224D09F4B9D4239
:102328000ED09F4B9D4200F0BE80B1F5004F00F0EB
:102338002C810120F8BD80F8682000F0CDFEBCE7B4
:1023480003F5E2331B6B03F44013B3F5801F00F071
:10235800A48013D9B3F5001F00F09380B3F5401F94
:1023680000F0D580E1E703F5E4331B6B03F4402369
:10237800B3F5802F00F0918000F2C280002BD4D1F9
:10238800B1F5004F00F0E680FFF7A6FA626800EBAF
:102398005203B3FBF2F39BB2EB60636A002B49D1A3
:1023A80023685A6822F490425A609A6822F02A02F6
:1023B8009A601A68002142F001021A60E166FDF78E
:1023C80041FF23681A68110706460BD41A6852079A
:1023D80024D42023002084F8693084F8680084F825
:1023E8006A30F8BDDD6915F40015EFD1FDF72AFF55
:1023F800801BB0F1007F2368F4D31A6822F4D072EE
:102408001A609A68202122F001029A60032084F859
:10241800691084F8685084F86A10F8BDDD6915F40D
:102428008005D6D1FDF70EFF801BB0F1007F236831
:10243800F4D3E2E72046FFF7DDFEB1E7594B5A4AED
:102448001B6B03F00303B1F5004FD35C3ED1082B9F
:1024580000F29B80DFE803F07E698199939999994E
:102468008B0003F5E6331B6B03F44033B3F5803F71
:1024780013D083D9B3F5003F03D0B3F5403F46D01E
:1024880053E7B1F5004F72D06268530803F5004373
:10249800B3FBF2F39BB2EB607FE7B1F5004F6ED070
:1024A800FFF7E6F972E703F5E0331B6B03F440032B
:1024B800B3F5800FF1D049D9B3F5000FE1D0B3F5EA
:1024C800400F24D0B1F5004F5FD01023082B3FF602
:1024D80030AF01A252F823F0912300088D2500089F
:1024E8001D2500083B230008A92400083B230008F9
:1024F8003B2300083B230008912400080120704773
:10250800B3F5002FBDD0B3F5402F7FF40EAFB1F572
:10251800004F22D06268530803F5F40303F5905383
:10252800B3FBF2F39BB2EB6037E7FFF7EDF96268B4
:102538002568530803EB4003B3FBF2F39BB223F087
:102548000F02C3F342031343EB6026E7002B3FF46B
:1025580017AFB7E7FFF7C0F9E9E76268530803F573
:10256800740303F51053B3FBF2F39BB2E7E7626819
:10257800530803F58033B3FBF2F39BB2DFE7FFF7B1
:1025880077F9D4E7FFF7C0F900E70023EB60D0E65E
:10259800003801400044004000480040004C004022
:1025A8000050004000100240EC320008704700BFA5
:1025B80008B5084B08481A6980F821201B6880F87C
:1025C800223012F0FF0203D01330044900F040FE1D
:1025D80000BF08BD40010020640000202001002049
:1025E800024602490248FFF74DBC00BF74000020B4
:1025F800E8010020024608B502490348FFF766FCD7
:1026080000BF08BD3C000020E801002070B5064E60
:10261800064D074C074833462A462146FDF78AFFF0
:102628000028F7D170BD00BF1C01002074000020F5
:1026380028010020E800002038B50C4B0C4818632E
:1026480000240C4D0C490D4A5D63082083F8224094
:1026580083F820409963DA6300F0AEFA084B094822
:102668001C60BDE83840FFF70FBB00BF64000020C6
:10267800E9250008FD25000815260008B9250008E9
:1026880028010020A8010020F0B56B4A537892F881
:1026980002C003F007010131C3F3C30E03F0870042
:1026A800022982F8201082F823E0507000D900BF78
:1026B80013F0800F614B4FF000044FF00005C3E9A1
:1026C80000451478D3E900674FF000057FD1A419BD
:1026D8007D41C3E90045D3E90045241845F10005CB
:1026E800C3E90045D3E9004514EB0C0445F10005A6
:1026F800C3E90045D3E90067D4780025A4197D41D2
:10270800C3E90045D3E9004516790027A41901F16A
:1027180003007D4102260428C3E90045966243D0A0
:10272800D3E9006754790025A4197D410528C3E938
:10273800004539D0D3E9006794790025A4197D4173
:102748000628C3E900452FD0D3E90067D4790025CE
:10275800A4197D410728C3E9004525D0D3E90067BE
:10276800147A0025A4197D410828C3E900451BD027
:10277800D3E90067547A0025A4197D410928C3E9E3
:10278800004511D0D3E90067947A0025A4197D414A
:102798000B28C3E9004507D1D3E90067D47A00259F
:1027A800A4197D41C3E90045D3E90045002504F09B
:1027B8000F04C3E90045D3E9006700255FFA8EF4EA
:1027C800AF4208BFA64231D000239362F0BDA419DE
:1027D8007D41C3E90045D3E90045241845F10005CA
:1027E800C3E90045D3E9000110EB0C0041F10001F9
:1027F800C3E90001D3E90045D078002100196941F7
:10280800C3E90001D3E90001002100F00F00C3E98A
:102818000001D3E9000100255FFA8EF48D424FF0E4
:10282800010308BF84429362CED1F0BD044BC3F8C4
:1028380000C01961F0BD00BF6400002050000020F6
:102848002801002097492DE9F8430B78002B5BD12C
:10285800954D964C2B78002B51D1DFF88C9299F836
:102868000030002B46D0924B93F810801E7884F8E5
:10287800218084F8226008F10305B8F1000F04D024
:1028880042468C498C4800F0E3FC00BF08F1040084
:1028980023186674C122894984F81280C0262674D8
:1028A8001A7400220023C1E900234FF0000E754579
:1028B80009D004EB0E03D1E900671A7C00239219B2
:1028C8007B41C1E900230EF1010E7045EFDAD1E931
:1028D8000023002302F00F02C1E90023D1E90023FD
:1028E800254408F10500236B2A74C0B298470023D9
:1028F80089F80030A36A022B20D0BDE8F883FFF7DF
:10290800C3FE00232B70A8E76D4A6E4D1278A818F5
:1029180010F8020CC02800F0AC806B486B4E0278AF
:10292800347822440332D2B2AA5CC12A1CD05E4D4C
:102938005E4C00232B7000220A708CE794F820204C
:1029480022B1634901F10D0000F08DFC614F624E28
:10295800624D63483B4632462946FDF7EBFD0028A9
:10296800F7D1A062BDE8F883327890F800C03278D9
:1029780090F800E032780778327802784B4C15F8F6
:102988000CC084F800C00EF1010E023703325FFA62
:102998008EFEFFB2D2B215F80EC015F807E0AF5C94
:1029A800327884F801C084F802E0E770002A70D019
:1029B800027837780432D2B2012FAA5C227168DD1E
:1029C800027837780532D2B2022FAA5C627160DDD4
:1029D800027837780632D2B2032FAA5CA27158DD8A
:1029E800027837780732D2B2042FAA5CE27150DD40
:1029F800027837780832D2B2052FAA5C227248DDF5
:102A0800027837780932D2B2062FAA5C627240DDAA
:102A1800027837780A32D2B2072FAA5CA27238DD60
:102A2800027837780B32D2B2082FAA5CE27230DD16
:102A3800027837780C32D2B2092FAA5C227328DDCB
:102A4800027837780D32D2B20A2FAA5C627320DD81
:102A5800027837780E32D2B20B2FAA5CA27318DD37
:102A6800027836780F32D2B20C2EAA5CE27310DDEF
:102A7800037815481B4C154E023AD2B20270027800
:102A88002A4452782270227802F00702013232700A
:102A980045E70278044D0132D2B2012602702E7049
:102AA80049E700BF580300202C00002064000020E4
:102AB800400100202001002077000020B8000020FD
:102AC8002E0000205802002039000020610000205C
:102AD800670000201C01002074000020280100204D
:102AE800E8000020600000202D00002038B50E4BC3
:102AF8000E4A1A600121002214254FF4A02418461A
:102B08005D601C619A60DA605A611A761A775976A4
:102B18009976D9765977FDF7ADFB00B938BDBDE890
:102B2800384000F0E7B900BFE8000020006400402A
:102B3800F0B502681F4B89B000249A4204940394AC
:102B480005940694079401D009B0F0BD03F5D63377
:102B58000325DA6942F00072DA61DA6902F000727C
:102B68000192019A5A6942F400325A615B690695EA
:102B780003F40033029303A9092302224FF4C05639
:102B88004FF0904007930492029F0396FDF790FF41
:102B9800224629461320FDF70BFF1320FDF73EFFC1
:102BA800224629461420FDF703FF1420FDF736FFBF
:102BB80009B0F0BD0064004070B505461948FDF73E
:102BC80089FC58BB184B1748002201240E261946C9
:102BD8005E625A619A611A605A609A60DA601A6194
:102BE800DC611C62FDF7C8FBA8B90E48FDF744FC80
:102BF80070B903210B48FDF777FD08B100F07AF9A9
:102C08000A4B00221D615A60DA609A601A7570BD1D
:102C180000F070F9EDE700F06DF9E6E700F06AF909
:102C2800D0E700BFE8000020C000002028010020F5
:102C380000BF704708B500BF064B074A0021FDF7E3
:102C4800D1FC18B9054B01221A7008BDBDE808402F
:102C580000F050B920010020400100202D00002084
:102C680030B589B000241A4B049403940594069453
:102C780007945A69174D42F400125A615A6902F4CE
:102C880000120092009A5A6942F480225A615A69E5
:102C980002F480220192019A5A6942F400325A6180
:102CA8005B6903F400330293224628464FF48041BF
:102CB800029BFDF7EBFF4FF48042012303A928464E
:102CC8000594069403920493FDF7F2FE09B030BD13
:102CD8000010024000040048134B144A10B50121AB
:102CE800134C1A60184600225C60D9609A601A6119
:102CF8005A619A61DA611A62FEF798F888B9002178
:102D08000948FEF7B5F948B900210748FEF7DAF98E
:102D180000B910BDBDE8104000F0ECB800F0EAF8CA
:102D2800F2E700F0E7F8EAE75C0100200054004011
:102D38000E090020F0B50168174A89B000239142B6
:102D48000493039305930693079301D009B0F0BD4C
:102D5800124C1348636943F480236361636903F485
:102D6800802301930322042303A9C02712260125E7
:102D78000793DDF804E00397049605950692FDF79E
:102D880097FEE36943F40013E361E36903F4001376
:102D98000293029B09B0F0BD0054004000100240AD
:102DA800000400482DE9F04387B03324322028215D
:102DB8000F220123DFF868808DF810408DF811008C
:102DC8008DF812108DF813208DF8143004AD0DF124
:102DD8001507642615F8013B009623F00F021B0126
:102DE80052B25BB242F0080E43F00C0C42F00C09F0
:102DF80043F0080403AA04237E2140468DF80DE021
:102E08008DF80EC08DF80C908DF80F40FEF764F821
:102E18000A20FDF71DFAAF42DCD107B0BDE8F08308
:102E28005C01002030B500219FB00C4605A828227F
:102E380000F033FA21460FA83C22022501940094A1
:102E480002940394049400F028FA012110224FF40C
:102E5800601305A809910A920E9305950C95FEF743
:102E680059F929460F224FF480636846009203936C
:102E7800019502940494FEF71FFC24224FF480234A
:102E88000FA816940F921393FEF756FD1FB030BD8E
:102E980080B582B0FDF7B8F9FFF7C4FFFFF7E0FE91
:102EA80000F0FCF8FFF722FEFFF716FF00F0B0F87D
:102EB8000E4B31221A70372032223821332734261C
:102EC800352536245A709F70DE701D715C719871BB
:102ED800D9718DF80720FFF7AFFB054B00221A7058
:102EE800FFF760FFFFF7AEFC00BFFBE7140100200F
:102EF80058030020704700BF0A4B9A6942F001024C
:102F08009A619A6982B002F001020092009ADA6925
:102F180042F08052DA61DB6903F080530193019B30
:102F280002B0704700100240704700BFFEE700BFC4
:102F3800FEE700BFFEE700BFFEE700BF704700BF27
:102F4800704700BF704700BFFDF770B90148FDF733
:102F5800F3BB00BFE80000200148FDF7EDBB00BF50
:102F6800E80000200148FEF7FFBF00BFE80100208D
:102F780008B50748FEF79EFE064907480122FEF7F6
:102F8800A5FF4FF480410548BDE80840FDF784BE21
:102F9800A80100203C000020E801002000040048AF
:102FA8001749184B184A194810B4D1F8884044F406
:102FB8007004C1F888401C6844F001041C605C6817
:102FC80022405A601A6822F0847222F480321A6011
:102FD8001A6822F480221A605A6822F4FE025A60A3
:102FE800DA6A22F00F02DA621A6B002410404FF0FE
:102FF800006218639C608A605DF8044B704700BFEC
:1030080000ED00E0001002400CC07FF8CCFC00FF8F
:1030180010B5104B104A1A6084B0002202246421B3
:1030280018465C60D9609A6001929A610292039294
:10303800FEF794FD58B9002301A9064801930393AC
:10304800FEF7F0FE08B1FFF755FF04B010BDFFF71B
:1030580051FFF0E7A80100200010004002680E4B65
:103068009A4200D0704703F5003300B5DA6942F0A0
:103078001002DA61DB6983B003F0100301930022C8
:1030880002213620019BFDF793FC3620FDF7C6FC94
:1030980003B05DF804FB00BF001000400C4B0D4A64
:1030A80010B50C211A604FF4E134002218465C6018
:1030B80059619A60DA601A619A61DA611A625A6231
:1030C800FFF7F0F800B910BDBDE81040FFF712BFD8
:1030D800E801002000480040F0B50268254B89B09F
:1030E80000249A420494039405940694079401D00A
:1030F80009B0F0BD03F5E4330227DA691E4842F44B
:103108008022DA61DA6902F480220092009A5A6910
:1031180042F400125A615A6902F400120192019AAB
:103128005A6942F480225A615B69049703F4802348
:10313800029303264FF40043072503A9029A039339
:1031480006960795FDF7B4FC4FF4806303A90B4876
:1031580003930497069607950594FDF7A9FC224664
:1031680001212720FDF724FC2720FDF757FC09B093
:10317800F0BD00BF004800400010004800040048AF
:1031880010B4074A0749137807480C78C45407490C
:1031980001330120137008705DF8044B704700BFBD
:1031A8002E0000203C000020580200205803002078
:1031B80000BF7047DFF834D0002103E00C4B5B58A8
:1031C800435004310B480C4B42189A42F6D30B4A31
:1031D80002E0002342F8043B094B9A42F9D3FFF777
:1031E800DFFE00F011F8FFF753FEFEE700A0002015
:1031F80010330008000000200C0000201000002000
:103208005C030020FEE7000070B50D4E0D4CA41BBA
:10321800A4100025A54209D10B4E0C4C00F046F82D
:10322800A41BA4100025A54205D170BD56F8253071
:1032380098470135EEE756F8253098470135F2E70B
:103248000833000808330008083300080C33000866
:1032580010B5431E0A44914200D110BD11F8014B2C
:1032680003F8014FF7E7884210B501EB020303D8D2
:10327800421E99420CD110BD9842F9D28118D21A37
:10328800D34200D110BD13F8014D01F8014DF7E705
:1032980011F8014B02F8014FEBE702440346934251
:1032A80000D1704703F8011BF9E70000F8B500BF2B
:1032B800F8BC08BC9E467047F8B500BFF8BC08BC0F
:0432C8009E46704767
:1032CC0002030405060708090A0B0C0D0E0F10105B
:1032DC000102030405060708090A0B0C0D0E0F105A
:1032EC0001040802000000000000000001020304B9
:0C32FC000607080900000000010203049E
:04330800AD0100080B
:04330C00890100082B
:0C331000010000001000000000127A0014
:04000005080031BD01
:00000001FF
