:020000040800F2
:1000000000A00020E91D0008891C00088B1C0008C6
:100010008D1C00088F1C0008911C000800000000C7
:10002000000000000000000000000000931C000819
:10003000951C000800000000971C0008991C00088F
:10004000391E0008391E0008391E0008391E000834
:10005000391E0008391E0008391E0008391E000824
:10006000391E0008391E0008391E0008391E000814
:10007000391E0008391E0008391E0008391E000804
:10008000391E0008391E0008391E0008A91C000886
:100090009D1C0008391E0008391E0008391E000882
:1000A000391E0008391E0008391E0008391E0008D4
:1000B000391E0008391E0008391E0008391E0008C4
:1000C000391E0008391E0008391E0008391E0008B4
:1000D000391E0008391E0008391E0008391E0008A4
:1000E000391E0008391E0008391E0008391E000894
:1000F000391E0008391E0008391E0008391E000884
:10010000000000000000000000000000391E000890
:10011000391E0008391E0008391E0008391E000863
:10012000391E0008391E0008391E0008391E000853
:10013000391E0008391E0008000000000000000001
:10014000391E0008391E0008391E00080000000092
:10015000000000000000000000000000000000009F
:100160000000000000000000391E0008391E0008D1
:10017000391E000800000000000000000000000020
:0801800000000000391E000818
:1001880010B5054C237833B9044B13B10448AFF3C9
:1001980000800123237010BD0C0000200000000027
:1001A800941E000808B5034B1BB103490348AFF37D
:1001B800008008BD0000000010000020941E000808
:1001C80038B50E4A0E4B054618784FF47A73B3FBD0
:1001D800F0F31068B0FBF3F000F0AAFB044658B93E
:1001E8000F2D09D8024629464FF0FF3000F060FB7A
:1001F800044B20461D6038BD012038BD0800002092
:100208000000002004000020074A08B5136843F0E6
:1002180010031360032000F039FB0020FFF7D0FF24
:1002280001F016FD002008BD00200240034A044BDF
:1002380011681B780B441360704700BF280000202A
:1002480000000020014B1868704700BF28000020FC
:1002580038B5044600286ED090F820300BB901F06C
:1002680077FB2268136823F002031360FFF7EAFFA5
:10027800054623685A68910751D41A6842F001026A
:100288001A60FFF7DFFF054623685A68D20754D57E
:10029800227E012A1A680CBF42F0800222F08002F6
:1002A8001A60627E012A1A680CBF42F0400222F0EE
:1002B80040021A60A27E012A1A680CBF42F020028E
:1002C80022F020021A60E27E012A1A680CBF22F08E
:1002D800100242F010021A60227F012A1A680CBF2D
:1002E80042F0080222F008021A60627F012A1A68A6
:1002F8000CBF42F0040222F004021A60E168A2680E
:100308000A4321690A4361690A43616801390A435A
:10031800DA6100200123606284F8203038BDFFF7DD
:1003280091FF401B0A28A4D9636A43F4003363622F
:10033800052384F82030012038BDFFF783FF401BD8
:100348000A28A1D9F0E790F82030013B012B70B5BD
:100358005FD803684869D3F8002242F00102C3F865
:100368000022012400F01F02D3F81C5204FA02F202
:10037800D4432540C3F81C52CD6985BBD3F80C5231
:10038800CE682540C3F80C528D8803EBC00045EABF
:100398000645C0F840528E680D8845EA0645C0F803
:1003A8004452886968BBD3F804022040C3F80402A9
:1003B800086950BBD3F814022040C3F81402096A34
:1003C800012902BFD3F81C120A43C3F81C22D3F830
:1003D800002222F00102C3F80022002070BD012D86
:1003E800DFD1D3F80C520E681543C3F80C528D8830
:1003F80003EBC00045EA0645C0F840528E688D8977
:10040800CBE7D3F804021043D0E7D3F81402104323
:10041800D3E7436A43F480234362012070BD38B5B3
:1004280090F82030012B04461FD10268022380F87F
:100438002030136823F001031360FFF703FF05461C
:100448002368586810F0010001D1606238BDFFF7D9
:10045800F9FE401B0A28F3D9636A43F40033636248
:10046800052384F82030012038BD436A43F4002373
:100478004362F8E738B590F82030022B044622D1C1
:100488000268136843F001031360FFF7DBFE0546BB
:1004980023685A68D20708D51A6822F002021A603F
:1004A800012384F82030002038BDFFF7CBFE401B25
:1004B8000A28EDD9636A43F400336362052384F89C
:1004C8002030012038BD436A43F480134362F8E7C3
:1004D800F0B590F820500668013D012DB46840D869
:1004E80014F0E05F39D0C4F30164032C4FF0010528
:1004F80005D1436A43F4000343620120F0BDA540DF
:100508001D608868CF6804F1180308BB086847EACB
:1005180040501B012401F05033190869097DC3F8C4
:100528008401012902BFD3F8841141F48071C3F812
:10053800841134445168C4F88C111268C4F88821B5
:10054800D3F8802142F00102C3F880210020F0BDD9
:100558004D68384340EAC500DBE7436A43F40013BB
:10056800CAE7436A43F48023C6E7F0B590F8204011
:10057800013C012C6BD8066841B9F468A40707D17F
:10058800436A43F4001343620120F0BD3469F5E780
:100598000C013519D5F8B07107F004079760002FE2
:1005A8004BD1D5F8B0717F0D1760D5F8B071C7F38E
:1005B8004007D760D5F8B47107F00F071761D5F871
:1005C800B471D5F8B4512644C7F307272D0C9761A9
:1005D8005561D6F8B8211A7002682244D2F8B821B9
:1005E800120A5A7002682244D2F8B821120C9A7082
:1005F80002682244D2F8B821120EDA700268224446
:10060800D2F8BC211A7102682244D2F8BC21120A1D
:100618005A7102682244D2F8BC21120C9A710268FD
:100628001444D4F8BC21120EDA71036851B9DA689F
:1006380042F02002DA600020F0BDD5F8B071FF0862
:100648005760B2E71A6942F020021A61F3E7436A79
:1006580043F4802397E790F82030013B012B05D81D
:10066800026853691943516100207047436A43F493
:100678008023436201207047704770477047704776
:1006880070477047704770477047704770472DE94B
:10069800F84F03685E69D3F804909F68D3F80CB0EC
:1006A800D3F810A0D3F8188016F00104054622D01C
:1006B80017F0010407D00122B9079A6040F1A3801E
:1006C80001F0C4F90024FB0509D52B684FF48072AA
:1006D800B8059A6040F1A5802846FFF7CDFFFB03D7
:1006E80009D52B684FF48032B8039A6040F1A7808F
:1006F8002846FFF7C2FF330707D51BF0100F1FBFAF
:100708002B68102244F40074DA60770708D51BF0D0
:10071800080F05D02B680822DA602846FFF7B1FFDA
:10072800B00706D52B68DB68990702D0284601F088
:100738008FF9720607D51AF0100F1FBF2B68102209
:1007480044F480641A61B30608D51AF0080F05D07E
:100758002B6808221A612846FFF795FFF70606D589
:100768002B681B69980702D02846FFF78BFFB10357
:1007780008D519F0100F05D02B6810225A602846AA
:10078800FFF782FFF20308D519F0080F05D02B6890
:1007980008225A602846FFF778FF33042AD519F053
:1007A800040F2A6824D0F70504D518F0010F18BFE4
:1007B80044F00104B00504D518F0020F18BF44F046
:1007C8000204710504D518F0040F18BF44F004049E
:1007D80033050DD518F070030AD0302B4CD03CD817
:1007E800102B43D0202B44D0936923F070039361DE
:1007F800042353602CB16B6A1C436C622846FFF7D4
:1008080045FFBDE8F88F7A0705D417F0080405D12D
:10081800FFF734FF57E74FF4006454E74FF4805470
:1008280051E7790502D544F4005458E73A0502D552
:1008380044F4804453E72846FFF721FF4FE7790344
:1008480002D544F4004456E73A0302D544F4803410
:1008580051E72846FFF714FF4DE7502B0FD0602BC8
:1008680010D0402BC0D144F04004BDE744F0080448
:10087800BAE744F01004B7E744F02004B4E744F0C2
:100888008004B1E744F48074AEE70000074AD368F7
:1008980023F4E0631B041B0C43F0BF63000243F422
:1008A800003300F4E0600343D360704700ED00E0DC
:1008B800174B30B5DC68C4F30224C4F10703251DC7
:1008C800042B28BF0423062D4FF0010505FA03F376
:1008D80003F1FF338CBF033C00241940A14005FA03
:1008E80004F4013C2240002842EA01024FEA0212C5
:1008F800AFBF00F1604000F00F00064BD2B2A5BFB9
:1009080000F56140D2B21A5480F8002330BD00BF10
:1009180000ED00E014ED00E04209012300F01F00A3
:1009280003FA00F0014B43F82200704700E100E0B1
:100938000138B0F1807F0AD2064B074A5860F0218F
:1009480082F823100020072298601A60704701205F
:10095800704700BF10E000E000ED00E02DE9F74F20
:10096800D1F80080DFF874915A4A002338FA03F46A
:1009780002D103B0BDE8F08F012404FA03FA18EAA3
:100988000A0500F09C804C6824F0100BBBF1020FA4
:1009980014D14FEAD30E00EB8E0E03F0070CDEF8ED
:1009A80020604FEA8C0C0F2707FA0CF726EA070796
:1009B8000E6906FA0CF63E43CEF820604FEA430C67
:1009C8000327066807FA0CF7FF4304F0030E3E40BE
:1009D8000EFA0CFE0BF1FF3B4EEA0606BBF1010FC7
:1009E800066011D8866806EA070BCE6806FA0CFE80
:1009F8004EEA0B068660466826EA0A0AC4F3001621
:100A08009E4046EA0A064660C66837408E6806FA7F
:100A18000CF63743E600C76051D5D9F8186046F0A0
:100A28000106C9F81860D9F8186023F0030707F120
:100A3800804706F0010607F58037019603F0030C9E
:100A4800019EBE684FEA8C0C4FF00F0E0EFA0CFE9A
:100A5800B0F1904F26EA0E0E33D01F4EB04232D07E
:100A680006F58066B04230D006F58066B0422ED0DA
:100A780006F58066B04214BF0526042606FA0CF671
:100A880046EA0E06BE601668EF4314F4803F0CBFBA
:100A98003E402E431660566814F4003F0CBF3E409B
:100AA8002E435660966814F4801F0CBF3E402E43B8
:100AB8009660D668A40254BF3E402E43D6600133E8
:100AC80054E70026DAE70126D8E70226D6E7032608
:100AD800D4E700BF000401400004004800100240B1
:100AE80010B5044600284AD090F8413003F0FF02C0
:100AF8001BB980F8402001F00BF8242384F841301A
:100B08002368E1681A6822F001021A60626822F01C
:100B180070621A619A68012922F400429A60A268F8
:100B280024D142F400429A605A68616942F0007226
:100B380042F400425A60DA6822F40042DA6022691C
:100B48000A43A16942EA0122DA60216AE2690A439A
:100B58001A601A6842F001021A60002020236064BB
:100B680084F84130206384F8420010BD42F4044206
:100B780002299A6004BF4FF400625A60D4E701204A
:100B880010BD90F84120D2B2202A10B51DD190F89E
:100B98004030012B19D0242380F8413003681C68A9
:100BA80024F001041C601C6824F480541C601C6838
:100BB80021431960196841F001011960002380F888
:100BC800412080F84030184610BD022010BD10B5F5
:100BD80090F84140E4B2202C1CD190F84030012B11
:100BE80018D0242380F8413003681A6822F00102E3
:100BF8001A601A6822F4706242EA012119601A68C0
:100C080042F001021A60002380F8414080F8403029
:100C1800184610BD022010BD2DE9F347054618B946
:100C2800012002B0BDE8F0870368DA0711D42B6809
:100C38009B0700F185802B681C0700F1F6802B6864
:100C4800580700F13F81EA69002A40F0D681002068
:100C5800E7E7BA4C636803F00C03042B07D063681A
:100C680003F00C03082B16D16368DF0313D54FF488
:100C7800003393FAA3F2216893FAA3F3B3FA83F348
:100C880003F01F03012202FA03F30B42CFD06B6873
:100C9800002BCCD1C4E76A68B2F5803F25D1236820
:100CA80043F480332360E36AA96823F00F030B43FE
:100CB800E36252B3FFF7C6FA4FF4003680460127C5
:100CC80096FAA6F3226896FAA6F3B3FA83F303F02A
:100CD8001F0307FA03F31342A9D1FFF7B3FAA0EBF6
:100CE80008006428ECD903209BE7236832B923F471
:100CF80080332360236823F48023D3E7B2F5A02F41
:100D0800F5D143F480232360C9E7FFF79BFA4FF43A
:100D180000368046012796FAA6F3226896FAA6F3CB
:100D2800B3FA83F303F01F0307FA03F313423FF404
:100D38007EAFFFF787FAA0EB08006428EBD9D2E76B
:100D48007E4C636813F00C0F07D0636803F00C0344
:100D5800082B22D16368DE031FD4022393FAA3F27F
:100D6800216893FAA3F3B3FA83F303F01F03012274
:100D780002FA03F30B4203D02B6993427FF450AF7E
:100D88002168F82393FAA3F3B3FA83F26B699340CB
:100D980021F0F802134323604DE72A6901260AB3BC
:100DA80096FAA6F3B3FA83F303F1845303F5841395
:100DB8009B0002271E60FFF745FA804697FAA7F3C3
:100DC800226897FAA7F3B3FA83F303F01F0306FA2E
:100DD80003F31342D4D1FFF735FAA0EB0800022839
:100DE800ECD980E796FAA6F3B3FA83F303F18453B8
:100DF80003F584139B0002271A60FFF723FA804645
:100E080097FAA7F3226897FAA7F3B3FA83F303F0E4
:100E18001F0306FA03F313423FF40DAFFFF712FA6C
:100E2800A0EB08000228EBD95DE7AA69434E4449C4
:100E380001241AB394FAA4F3B3FA83F30B449B0086
:100E480002271C60FFF7FEF9804697FAA7F397FA86
:100E5800A7F397FAA7F3726A97FAA7F3B3FA83F39B
:100E680003F01F0304FA03F313427FF4E8AEFFF71D
:100E7800E9F9A0EB08000228E7D934E794FAA4F3CB
:100E8800B3FA83F30B449B0002271A60FFF7DAF9E1
:100E9800804697FAA7F397FAA7F397FAA7F3726A27
:100EA80097FAA7F3B3FA83F303F01F0304FA03F3E3
:100EB80013423FF4C4AEFFF7C5F9A0EB08000228BF
:100EC800E7D910E71D4CE369D90034D4E36943F04E
:100ED8008053E361E36903F080530193019B01268A
:100EE800184F3B68DA052FD5EB68012B3DD1236AF3
:100EF80043F001032362FFF7A5F902278246B946AA
:100F08004FF0010897FAA7F397FAA7F3002B6CD0D4
:100F1800226A99FAA9F3B3FA83F303F01F0308FAD4
:100F280003F3134258D0002E3FF48DAEE36923F04B
:100F38008053E36187E60026D2E700BF0010024035
:100F480020819010007000403B6843F480733B6040
:100F5800FFF778F980463B68DB05C5D4FFF772F9DF
:100F6800A0EB08006428F6D9BDE63BBB236A23F052
:100F780001032362236A23F004032362FFF762F963
:100F880002278246B9464FF0010897FAA7F397FA65
:100F9800A7F373B3226A99FAA9F3B3FA83F303F0B8
:100FA8001F0308FA03F31342BDD0FFF74BF941F2D0
:100FB8008833A0EB0A009842E7D994E6052B236A08
:100FC80003D143F00403236291E723F00103236272
:100FD800236A23F004038DE7FFF734F941F28833DD
:100FE800A0EB0A0098428DD97DE697FAA7F3626ACA
:100FF8008FE797FAA7F3626ACDE7414C636803F07D
:101008000C03082B3FF40CAE022A4FF0807352D128
:1010180093FAA3F3B3FA83F303F1845303F5841328
:101028009B0000221A60FFF70DF94FF00077804609
:10103800012697FAA7F3226897FAA7F3B3FA83F37E
:1010480003F01F0306FA03F313422DD162686B6A9B
:10105800296A22F474120B43134363604FF08073C0
:1010680093FAA3F3B3FA83F303F1845303F58413D8
:101078009B004FF000751E60FFF7E4F80126074655
:1010880095FAA5F3226895FAA5F3B3FA83F303F06A
:101098001F0306FA03F313427FF4D9ADFFF7D2F822
:1010A800C01B0228ECD91EE6FFF7CCF8A0EB08001D
:1010B8000228BED917E693FAA3F3B3FA83F303F130
:1010C800845303F584139B0000221A60FFF7BAF8D3
:1010D8004FF000750746012695FAA5F3226895FAA0
:1010E800A5F3B3FA83F303F01F0306FA03F31342DD
:1010F8003FF4ADADFFF7A6F8C01B0228ECD9F2E526
:101108000010024010B5134C616801F00C03082B65
:101118001ED14FF4701393FAA3F301F47012B3FACB
:1011280083F322FA03F30C4AD05CE36A0F2292FAA3
:10113800A2F2B2FA82F203F00F03D340074AD25C5C
:10114800CB034ABF064B074BB3FBF2F3584310BD22
:10115800034810BD00100240AC1E0008BC1E000869
:1011680000127A0000093D002DE9F0410D460446C1
:1011780010B90120BDE8F0814C4A136803F0070359
:101188008B422ED32268910736D4D2073CD4474AE3
:10119800136803F007039D4275D32268444D12F08B
:1011A800040F7CD1130706D56B68226923F46053BA
:1011B80043EAC2036B60FFF7A5FF6B68F02292FA5F
:1011C800A2F2B2FA82F203F0F003D340394AD35CB8
:1011D800D840394B18600020FEF7F2FF0020BDE828
:1011E800F081136823F007030B431360136803F0BF
:1011F80007039942BDD1C5E72D49A0684B6823F084
:10120800F00303434B60C0E76268294E012A27D1E7
:101218004FF4003393FAA3F1316893FAA3F3B3FAC6
:1012280083F303F01F0302FA03F30B42A1D07368A0
:1012380023F003031A437260FFF704F841F2883879
:1012480007467368626803F00C03B3EB820F9ED005
:10125800FEF7F8FFC01B4045F3D90320BDE8F08135
:10126800022A0CBF4FF00073022393FAA3F13068EF
:1012780093FAA3F3B3FA83F303F01F03012101FAEE
:1012880003F30342D2E7136823F007032B431360E9
:10129800136803F007039D427FF46BAF7DE76B682B
:1012A800E16823F4E0630B436B607BE700200240B6
:1012B80000100240D01E000808000020084B4FF420
:1012C800E0625B6892FAA2F2B2FA82F203F4E06397
:1012D800D340044AD35C044A1068D840704700BF22
:1012E80000100240E01E000808000020084B4FF4E0
:1012F80060525B6892FAA2F2B2FA82F203F4605387
:10130800D340044AD35C044A1068D840704700BFF1
:1013180000100240E01E00080800002003682DE9C4
:10132800F347DD03044623D57C4DEB69D80000F173
:101338009880EB6943F08053EB61EB6903F08053CD
:101348000193019B0126764F3B68D90540F18B80BC
:101358002B6A13F4407340F09B802B6A626823F475
:10136800407313432B621EB1EB6923F08053EB618A
:101378002068C70706D5694AA168136B23F00303E1
:101388000B431363860706D5644AE168136B23F49D
:1013980040330B431363450706D5604A2169136B35
:1013A80023F440230B431363810606D55B4AE169A6
:1013B800136B23F010030B431363820306D5574ABC
:1013C800A16B536823F480030B435360430606D58F
:1013D800524A216A136B23F020030B431363070758
:1013E80006D54E4A6169136B23F440130B4313630C
:1013F800C60606D5494AA169136B23F440030B437B
:101408001363850506D5454AE16A536823F400034A
:101418000B435360010606D5404A616AD36A23F438
:10142800F8730B43D362C20506D53C4AA16AD36A56
:1014380023F478530B43D362C30406D5374A216B90
:10144800136B23F480730B43136310F400501CD008
:10145800324A616B136B23F400730B431363002050
:1014680013E000266FE73B6843F480733B60FEF7A8
:10147800E9FE80463B68DA053FF56AAFFEF7E2FE13
:10148800A0EB08006428F5D9032002B0BDE8F08776
:10149800626802F4407293423FF45FAF296A4FF4E6
:1014A800803321F4407093FAA3F2DFF878E0B2FABF
:1014B80082F2724492000127176093FAA3F3B3FAF9
:1014C80083F373449B0000221A60CB0728627FF5E0
:1014D80044AFFEF7B7FE4FF002088246C14698FABD
:1014E800A8F398FAA8F3A3B12A6A99FAA9F3B3FA68
:1014F80083F303F01F0307FA03F313427FF42DAFBE
:10150800FEF7A0FE41F28833A0EB0A009842E6D924
:10151800BAE798FAA8F36A6AE7E700BF0010024042
:10152800007000400081901038B582680568C36972
:101538002968044600690243606921F416410243A0
:1015480021F00C011A430A432A606A68E168206A9C
:1015580022F440520A436A60A968A26921F4306102
:1015680002430A43AA606E4A954212D102F55842D4
:101578006C49126B02F00302B3F5004F8A5C66D027
:10158800082A19D8DFE802F0C2929E18A91818187C
:10159800AC00654A954224D102F5E632126B02F49A
:1015A8004032B2F5803F00F0A08007D8002A00F052
:1015B800AA80B3F5004F76D0012038BDB2F5003FC0
:1015C80000F09980B2F5403FF3D1B3F5004F79D1DF
:1015D8006068430803F5740303F51053B3FBF0F395
:1015E80054E0524A95420ED102F5E432126B02F4ED
:1015F8004022B2F5802F78D0D8D9B2F5002F7AD012
:10160800B2F5402FE0E74A4A95420ED102F5E232A0
:10161800126B02F44012B2F5801F66D0C6D9B2F53B
:10162800001F68D0B2F5401FCEE7424A9542C0D1AC
:1016380002F5E032126B02F44002B2F5800F54D08A
:10164800B4D9B2F5000F56D0B2F5400FBCE7082A5E
:1016580029D801A353F822F085160008A916000816
:10166800D9150008AF160008F9160008AF160008CB
:10167800AF160008AF16000805170008FFF71EFE92
:1016880061684A0802EB4003B3FBF1F39BB2002008
:1016980023F00F022168C3F342031343CB6038BD24
:1016A800FFF724FEECE701200023F1E7FFF71EFE19
:1016B800636800EB5300B0FBF3F0194B80B2D860BD
:1016C800002038BD6268530803F5F40303F590530E
:1016D800B3FBF2F39BB2EB60F2E7FFF713FD17E001
:1016E8006268530803F50043F2E7B3F5004FF4D1FD
:1016F800FFF708FDC4E7B3F5004FF1D16068430870
:1017080003F580336AE7B3F5004FB7D0FFF7D6FD8E
:10171800636800EB5300B0FBF3F080B2E860CFE7FA
:1017280000380140CC1E000800440040004800403A
:10173800004C004000500040436ADA0710B506D557
:101748000168846A4A6822F4003222434A609C078E
:1017580006D50168C46A4A6822F4803222434A6086
:10176800590706D50168046B4A6822F4802222438F
:101778004A601A0706D50168446B4A6822F4004299
:1017880022434A60DC0606D50168846B8A6822F425
:10179800805222438A60990606D50168C46B8A681C
:1017A80022F4005222438A605A060FD50168046C5D
:1017B8004A6822F480122243B4F5801F4A6005D19A
:1017C8004A68446C22F4C00222434A601B0606D5CC
:1017D8000268816C536823F400230B43536010BDE7
:1017E8002DE9F041069D04460F46164698462168A5
:1017F800CA6937EA02030CBF01220022B24202D0B2
:101808000020BDE8F0816B1CF2D09DB923681A68EE
:1018180022F4D0721A609A6822F001029A6020239A
:1018280084F8693084F86A30002384F8683003202B
:10183800BDE8F081FEF706FDA0EB08008542D6D290
:10184800E4E773B504460026C666FEF7FBFC23688A
:101858001B681A07054617D423681B685B070AD557
:101868006FF07E43009300222B464FF48001204600
:10187800FFF7B6FFA0B92023002084F8693084F868
:10188800680084F86A300CE06FF07E4300933246BB
:1018980003464FF400112046FFF7A2FF0028DBD0D3
:1018A800032002B070BD10B5044660B390F86930EB
:1018B80003F0FF021BB980F8682000F047FA22689D
:1018C800242384F86930136823F001031360204649
:1018D800FFF72AFE012816D0636A13B12046FFF7E6
:1018E8002BFF23685A6822F490425A609A6822F0C3
:1018F8002A029A601A6842F0010220461A60BDE87E
:101908001040FFF79EBF012010BD000008B50E482B
:101918000E4B4FF4A0224FF0500E80E808400261B1
:10192800002301228360C360436103764276827696
:10193800C27603774377FEF78BFC18B1BDE8084001
:1019480000F084B908BD00BF5400002000640040C6
:1019580010B5044688B01422002103A800F08EFABE
:1019680022681B4B9A4231D103F5D63303A9DA69B1
:1019780042F00072DA61DA6902F000720192019AAB
:101988005A6942F400325A615B6903F400330293E6
:10199800029B4FF4C053039302230493032306933B
:1019A8004FF0904009230793FEF7D8FF0022114615
:1019B8001320FEF77DFF1320FEF7AEFF0022142050
:1019C8001146FEF775FF1420FEF7A6FF08B010BDFC
:1019D8000064004038B5044619480D46FEF74AFD34
:1019E80008B100F033F917491548002301224B616B
:1019F8008B6164014B608B60CB600B610E23CA6105
:101A08000C600A624B62FEF79EFC08B100F01EF9FA
:101A18000B48FEF704FD08B100F018F90321084847
:101A2800FEF719FE08B100F011F9074B01221A6000
:101A380000225A60DA609A601D611A7538BD00BFCD
:101A4800540000202C0000209400002000BF7047A4
:101A580008B500BF054B064A0021FEF786FD18B100
:101A6800BDE8084000F0F2B800BF08BD8C000020B7
:101A7800AC0000200F4B5A6942F400125A615A69AF
:101A880084B002F400120192019A5A6942F4802249
:101A98005A615A6902F480220292029A5A6942F4FF
:101AA80000325A615B6903F400330393039B04B06B
:101AB800704700BF0010024008B51248124B134986
:101AC800012280E80A0000238360C2600361436149
:101AD8008361C3610362FFF703F808B100F0B6F849
:101AE80000210848FFF74DF808B100F0AFF80021D1
:101AF8000448FFF76CF818B1BDE8084000F0A6B834
:101B080008BD00BFC80000200E0900200054004096
:101B180010B5044688B01422002103A800F0AEF9DD
:101B28002268134B9A4220D1124C1348636943F43C
:101B380080236361636903F480230193019BC023BD
:101B4800039312230493012305930323069303A904
:101B580004230793FEF702FFE36943F40013E361EC
:101B6800E36903F400130293029B08B010BD00BFA1
:101B780000540040001002400004004830B59FB0F7
:101B88002822002105A800F079F9142200216846CE
:101B980000F074F93C220DEB0200002100F06EF910
:101BA80001230993102302250A9305A84FF4601313
:101BB8000E9305950C95FFF72FF80F2300248DE859
:101BC800280029464FF480636846039302940494DE
:101BD800FFF7CAFA24230FA80F9313941694FFF75C
:101BE8009DFB1FB030BD000070B5144C144E154D50
:101BF800FEF70AFBFFF7C2FFFFF73CFF00F086F88D
:101C0800FFF784FEFFF758FF5223237073226F23D8
:101C18006370A270637165226E23E270A3716D22F6
:101C28006423082100202271E371FFF7D3FE3346B5
:101C3800224629460448FEF74BFCF8E77D000020C1
:101C480088000020AC0000205400002070470000ED
:101C58000A4B9A6942F001029A619A6982B002F0CD
:101C680001020092009ADA6942F08052DA61DB6977
:101C780003F080530193019B02B0704700100240AB
:101C88007047FEE7FEE7FEE7FEE7704770477047DC
:101C9800FEF7CCBA0148FEF7FABC00BF540000209A
:101CA800FFF7F8BF1549D1F8883043F47003C1F83D
:101CB8008830134B1A6842F001021A605868114ABA
:101CC80002405A601A6822F0847222F480321A6044
:101CD8001A6822F480221A605A6822F4FE025A60B6
:101CE800DA6A22F00F02DA62186B074A02401A63B6
:101CF80000229A604FF000638B60704700ED00E0AF
:101D0800001002400CC07FF8CCFC00FF08B50D485D
:101D18000D4B0C224FF4165E80E808404261002308
:101D28004FF440728360C36003618261C3610362E0
:101D38004362FFF7B8FD18B1BDE80840FFF786BF5A
:101D480008BD00BF140100200048004070B50446DB
:101D580088B01422002103A800F090F822681D4BD7
:101D68009A4235D103F5E4330226DA691A4842F477
:101D78008022DA61DA6902F480220092009A5A69B4
:101D880042F400125A615A6902F400120192019A4F
:101D98005A6942F480225A615B69049603F48023ED
:101DA8000293029B03254FF40043072403A90393DE
:101DB80006950794FEF7D2FD4FF4C843039303A991
:101DC800002306480496059306950794FEF7C6FD7A
:101DD80008B070BD004800400010004800040048EA
:101DE800DFF834D0002103E00C4B5B58435004313A
:101DF8000B480C4B42189A42F6D30B4A02E00023D8
:101E080042F8043B094B9A42F9D3FFF74BFF00F025
:101E180011F8FFF7E9FEFEE700A00020F01E000819
:101E2800000000200C0000200C000020840100208D
:101E3800FEE7000070B50D4E0D4CA41BA410002544
:101E4800A54209D10B4E0C4C00F020F8A41BA4109D
:101E58000025A54205D170BD56F8253098470135B3
:101E6800EEE756F8253098470135F2E7E81E0008F6
:101E7800E81E0008E81E0008EC1E0008024403469D
:101E8800934200D1704703F8011BF9E7F8B500BF8A
:101E9800F8BC08BC9E467047F8B500BFF8BC08BC43
:041EA8009E4670479B
:101EAC0002030405060708090A0B0C0D0E0F10108F
:101EBC000102030405060708090A0B0C0D0E0F108E
:101ECC0001040802000000000000000001020304ED
:0C1EDC00060708090000000001020304D2
:041EE800AD01000840
:041EEC008901000860
:0C1EF000010000001000000000127A0049
:0400000508001DE9E9
:00000001FF
