:020000040800F2
:1000000000A00020CD4200088D4000089B40000861
:10001000A1400008A7400008AD4000080000000013
:10002000000000000000000000000000B3400008D5
:10003000C140000800000000CF400008DD4000087B
:100040001D4300081D4300081D4300081D43000810
:100050001D4300081D4300081D4300081D43000800
:100060001D4300081D4300081D4300081D430008F0
:100070001D4300081D4300081D4300081D430008E0
:100080001D4300081D4300081D430008E940000807
:10009000FD4000081D4300081D4300081D430008E3
:1000A0001D4300081D4300081D4300081D430008B0
:1000B0001D4300081D4300081D4300081D430008A0
:1000C0001D4300081D4300081D4300081D43000890
:1000D0001D4300081D4300081D4300081D43000880
:1000E0001D4300081D4300081D4300081D43000870
:1000F0001D4300081D4300081D4300081D43000860
:100100000000000000000000000000001D43000887
:100110001D4300081D4300081D4300081D4300083F
:100120001D4300081D4300081D4300081D4300082F
:100130001D4300081D4300080000000000000000EF
:100140001D4300081D4300081D4300080000000077
:10015000000000000000000000000000000000009F
:1001600000000000000000001D4300081D430008BF
:100170001D43000800000000000000000000000017
:08018000000000001D4300080F
:1001880010B5054C237833B9044B13B10448AFF3C9
:1001980000800123237010BD0C0000200000000027
:1001A8007843000808B5034B1BB103490348AFF374
:1001B800008008BD000000001000002078430008FF
:1001C80080B500AF084A084B1B6843F01003136062
:1001D800032000F0C7FF002000F008F803F02EFF0E
:1001E8000023184680BD00BF0020024080B582B0C1
:1001F80000AF7860124B1A68124B1B7819464FF4FF
:100208007A73B3FBF1F3B2FBF3F3184600F0DFFFA8
:100218000346002B01D001230EE07B680F2B0AD880
:10022800002279684FF0FF3000F0A7FF064A7B688C
:100238001360002300E0012318460837BD4680BD3F
:1002480008000020040000200000002080B400AF57
:10025800064B1B781A46064B1B681344044A136066
:1002680000BFBD465DF8047B704700BF0400002056
:100278002C00002080B400AF034B1B681846BD4615
:100288005DF8047B704700BF2C00002080B584B067
:1002980000AF7860FFF7EEFFB8607B68FB60FB6833
:1002A800B3F1FF3F05D0094B1B781A46FB6813448E
:1002B800FB6000BFFFF7DEFF0246BB68D21AFB688F
:1002C8009A42F7D300BF1037BD4680BD0400002016
:1002D80080B584B000AF78607B68002B01D1012322
:1002E800ECE07B6893F82030DBB2002B02D1786811
:1002F80003F03EFB7B681B687A681268126822F07C
:1003080002021A60FFF7B6FFF86012E0FFF7B2FFCB
:100318000246FB68D31A0A2B0BD97B685B6A43F445
:1003280000327B685A627B68052283F8202001230B
:10033800C4E07B681B685B6803F00203002BE5D10F
:100348007B681B687A681268126842F001021A60BA
:10035800FFF790FFF86012E0FFF78CFF0246FB689A
:10036800D31A0A2B0BD97B685B6A43F400327B688B
:100378005A627B68052283F8202001239EE07B686F
:100388001B685B6803F00103002BE5D07B681B7ECC
:10039800012B08D17B681B687A681268126842F0E2
:1003A80080021A6007E07B681B687A681268126826
:1003B80022F080021A607B685B7E012B08D17B6883
:1003C8001B687A681268126842F040021A6007E0F7
:1003D8007B681B687A681268126822F040021A600B
:1003E8007B689B7E012B08D17B681B687A68126842
:1003F800126842F020021A6007E07B681B687A687E
:100408001268126822F020021A607B68DB7E012BDA
:1004180008D17B681B687A681268126822F010029B
:100428001A6007E07B681B687A681268126842F0F5
:1004380010021A607B681B7F012B08D17B681B6840
:100448007A681268126842F008021A6007E07B684E
:100458001B687A681268126822F008021A607B68C2
:100468005B7F012B08D17B681B687A681268126869
:1004780042F004021A6007E07B681B687A68126819
:10048800126822F004021A607B681B687A68916817
:100498007A68D26811437A68126911437A68526996
:1004A80011437A685268013A0A43DA617B6800228C
:1004B8005A627B68012283F82020002318461037EF
:1004C800BD4680BD80B487B000AF786039607B6876
:1004D8001B687B617B6893F82030FB74FB7C012BE5
:1004E80003D0FB7C022B40F0AA807B69D3F8003252
:1004F80043F001027B69C3F800223B685B6903F0A3
:100508001F03012202FA03F3FB607B69D3F81C2264
:10051800FB68DB431A407B69C3F81C223B68DB6934
:10052800002B23D17B69D3F80C22FB68DB431A40EC
:100538007B69C3F80C223B685A693B68DB6819047D
:100548003B685B689BB219437B69483243F83210B9
:100558003B685B693A68926811043A68126892B21B
:100568000A4379694833DB000B445A603B68DB690E
:10057800012B22D17B69D3F80C22FB681A437B69D3
:10058800C3F80C223B685A693B681B6819043B682E
:100598005B689BB219437B69483243F832103B6869
:1005A8005B693A68926811043A68D26892B20A4361
:1005B80079694833DB000B445A603B689B69002B20
:1005C80009D17B69D3F80422FB68DB431A407B69B5
:1005D800C3F8042207E07B69D3F80422FB681A43B6
:1005E8007B69C3F804223B681B69002B09D17B692E
:1005F800D3F81422FB68DB431A407B69C3F8142242
:1006080007E07B69D3F81422FB681A437B69C3F8B7
:1006180014223B681B6A012B07D17B69D3F81C2283
:10062800FB681A437B69C3F81C227B69D3F8003244
:1006380023F001027B69C3F80022002306E07B68EF
:100648005B6A43F480227B685A62012318461C3790
:10065800BD465DF8047B704780B584B000AF786014
:100668007B6893F82030DBB2012B2ED17B68022205
:1006780083F820207B681B687A681268126822F069
:1006880001021A60FFF7F6FDF86012E0FFF7F2FDCD
:100698000246FB68D31A0A2B0BD97B685B6A43F4C2
:1006A80000327B685A627B68052283F82020012388
:1006B80012E07B681B685B6803F00103002BE5D13F
:1006C8007B6800225A62002306E07B685B6A43F479
:1006D80000227B685A62012318461037BD4680BD48
:1006E80080B584B000AF78607B6893F82030DBB2C7
:1006F800022B33D17B681B687A681268126842F053
:1007080001021A60FFF7B6FDF86012E0FFF7B2FDCC
:100718000246FB68D31A0A2B0BD97B685B6A43F441
:1007280000327B685A627B68052283F82020012307
:100738001BE07B681B685B6803F00103002BE5D0B6
:100748007B681B687A681268126822F002021A60D5
:100758007B68012283F82020002306E07B685B6A1F
:1007680043F480127B685A62012318461037BD464D
:1007780080BD80B489B000AFF860B9607A603B6032
:10078800FB6893F82030FB77FB681B689B68BB61AC
:10079800FB7F012B03D0FB7F022B40F0B480BB69A9
:1007A80003F08063002B0AD1BB6903F00063002BC0
:1007B80005D1BB6903F08053002B00F09C80BB6916
:1007C8001B0E03F003037B617B69022B07D9FB68CF
:1007D8005B6A43F40002FB685A6201239AE0012233
:1007E8007B699A403B681A60BB689B68002B0DD1F7
:1007F800FB681968BB681B685A05BB68DB681A4345
:100808007B6918331B010B441A600FE0FB681968F9
:10081800BB685B68DA00BB689B681A43BB68DB6827
:100828001A437B6918331B010B441A60FB6819686B
:10083800BB681A697B6918331B010B4404331A60BF
:10084800BB681B7D012B11D1FB681968FB681A680E
:100858007B6918331B01134404331B6843F480720B
:100868007B6918331B010B4404331A60FB68196851
:100878007B6807331B781A067B6806331B781B04D2
:100888001A437B6805331B781B0213437A680432CA
:1008980012781A437B691B010B4403F5C6731A606F
:1008A800FB6819687B6803331B781A067B68023378
:1008B8001B781B041A437B6801331B781B02134304
:1008C8007A6812781A437B691B010B4403F5C473D9
:1008D8001A60FB681968FB681A687B6918331B0182
:1008E80013441B6843F001027B6918331B010B4456
:1008F8001A6000230EE0FB685B6A43F40012FB6891
:100908005A62012306E0FB685B6A43F48022FB68B5
:100918005A62012318462437BD465DF8047B7047A8
:1009280080B487B000AFF860B9607A603B60FB685C
:1009380093F82030FB75FB7D012B03D0FB7D022B48
:1009480040F0F480BB68002B0ED1FB681B68DB68A5
:1009580003F00303002B16D1FB685B6A43F4001213
:10096800FB685A620123E8E0FB681B681B6903F017
:100978000303002B07D1FB685B6A43F40012FB6892
:100988005A620123D9E0FB681A68BB681B331B0154
:1009980013441B6803F004027B689A607B689B68B9
:1009A800002B0CD1FB681A68BB681B331B0113446E
:1009B8001B685B0DC3F30A027B681A600BE0FB68D7
:1009C8001A68BB681B331B0113441B68DB0823F040
:1009D80060427B685A60FB681A68BB681B331B015E
:1009E80013441B685B0803F001027B68DA60FB684C
:1009F8001A68BB681B331B01134404331B6803F0DC
:100A08000F027B681A61FB681A68BB681B331B01FD
:100A1800134404331B681B0ADAB27B689A61FB68CB
:100A28001A68BB681B331B01134404331B681B0C77
:100A38009AB27B685A61FB681A68BB681B01134449
:100A480003F5DC731B68DAB23B681A703B68013344
:100A5800FA681168BA6812010A4402F5DC72126871
:100A6800120AD2B21A703B680233FA681168BA687F
:100A780012010A4402F5DC721268120CD2B21A7022
:100A88003B680333FA681168BA6812010A4402F530
:100A9800DC721268120ED2B21A703B680433FA681C
:100AA8001168BA6812010A4402F5DE721268D2B2FD
:100AB8001A703B680533FA681168BA6812010A446B
:100AC80002F5DE721268120AD2B21A703B68063357
:100AD800FA681168BA6812010A4402F5DE721268EF
:100AE800120CD2B21A703B680733FA681168BA68F8
:100AF80012010A4402F5DE721268120ED2B21A709E
:100B0800BB68002B08D1FB681B68FA681268D268BA
:100B180042F02002DA6007E0FB681B68FA68126896
:100B2800126942F020021A61002306E0FB685B6A42
:100B380043F48022FB685A62012318461C37BD46DD
:100B48005DF8047B704780B485B000AF7860396089
:100B58007B6893F82030FB73FB7B012B02D0FB7B77
:100B6800022B09D17B681B687A68126851693A6858
:100B78000A435A61002306E07B685B6A43F48022DB
:100B88007B685A62012318461437BD465DF8047B1A
:100B9800704780B58AB000AF786000237B627B68BD
:100BA8001B685B693B627B681B685B68FB617B68F1
:100BB8001B689B68BB617B681B68DB687B617B6823
:100BC8001B681B693B617B681B689B69FB603B6A10
:100BD80003F00103002B7CD0BB6903F00103002B59
:100BE80023D07B681B6801229A60BB6903F002036B
:100BF800002B03D0786802F075FF16E0BB6903F09C
:100C08000403002B04D07B6A43F400637B620CE08E
:100C1800BB6903F00803002B04D07B6A43F48053BC
:100C28007B6202E0786800F079F9BB6903F48073AD
:100C3800002B24D07B681B684FF480729A60BB69D4
:100C480003F40073002B03D0786800F053F916E022
:100C5800BB6903F48063002B04D07B6A43F4005320
:100C68007B620CE0BB6903F40063002B04D07B6A51
:100C780043F480437B6202E0786800F059F9BB696D
:100C880003F48033002B24D07B681B684FF4803238
:100C98009A60BB6903F40033002B03D0786800F036
:100CA80033F916E0BB6903F48023002B04D07B6A78
:100CB80043F400437B620CE0BB6903F40023002B80
:100CC80004D07B6A43F480337B6202E0786800F0EA
:100CD80039F93B6A03F00803002B0CD07B6903F059
:100CE8001003002B07D07B6A43F400737B627B6898
:100CF8001B681022DA603B6A03F00403002B0BD058
:100D08007B6903F00803002B06D07B681B68082268
:100D1800DA60786800F020F93B6A03F00203002BE0
:100D280009D07B681B68DB6803F00303002B02D043
:100D3800786802F0E3FE3B6A03F04003002B0CD016
:100D48003B6903F01003002B07D07B6A43F48063F0
:100D58007B627B681B6810221A613B6A03F02003E0
:100D6800002B0BD03B6903F00803002B06D07B68EF
:100D78001B6808221A61786800F002F93B6A03F0E0
:100D88001003002B09D07B681B681B6903F0030361
:100D9800002B02D0786800F0E9F83B6A03F40033CE
:100DA800002B0BD0FB6903F01003002B06D07B68E7
:100DB8001B6810225A60786800F0ECF83B6A03F46C
:100DC8008033002B0BD0FB6903F00803002B06D0FF
:100DD8007B681B6808225A60786800F0E5F83B6A6F
:100DE80003F40043002B75D0FB6903F00403002BC8
:100DF8006CD03B6A03F48073002B08D0FB6803F0C7
:100E08000103002B03D07B6A43F001037B623B6A3A
:100E180003F40073002B08D0FB6803F00203002BD7
:100E280003D07B6A43F002037B623B6A03F480636E
:100E3800002B08D0FB6803F00403002B03D07B6A67
:100E480043F004037B623B6A03F40063002B3DD04C
:100E5800FB6803F07003002B38D0FB6803F07003C5
:100E6800302B17D0302B04D8102B09D0202B0CD0C6
:100E780024E0502B18D0602B1BD0402B0FD01DE046
:100E88007B6A43F008037B6218E07B6A43F0100337
:100E98007B6213E07B6A43F020037B620EE07B6A8F
:100EA80043F040037B6209E07B6A43F080037B6286
:100EB80004E07B6A43F480737B6200BF7B681B6835
:100EC8007A681268926922F070029A617B681B68DE
:100ED80004225A607B6A002B08D07B685A6A7B6AB6
:100EE8001A437B685A62786800F068F800BF2837B0
:100EF800BD4680BD80B483B000AF786000BF0C37BA
:100F0800BD465DF8047B704780B483B000AF78605D
:100F180000BF0C37BD465DF8047B704780B483B0D2
:100F280000AF786000BF0C37BD465DF8047B7047A2
:100F380080B483B000AF786000BF0C37BD465DF861
:100F4800047B704780B483B000AF786000BF0C3773
:100F5800BD465DF8047B704780B483B000AF78600D
:100F680000BF0C37BD465DF8047B704780B483B082
:100F780000AF786000BF0C37BD465DF8047B704752
:100F880080B483B000AF786000BF0C37BD465DF811
:100F9800047B704780B483B000AF786000BF0C3723
:100FA800BD465DF8047B704780B483B000AF7860BD
:100FB80000BF0C37BD465DF8047B704780B483B032
:100FC80000AF786000BF0C37BD465DF8047B704702
:100FD80080B485B000AF78607B6803F00703FB60DE
:100FE8000C4BDB68BB60BA684FF6FF031340BB606D
:100FF800FB681A02BB68134343F0BF6343F4003332
:10100800BB60044ABB68D36000BF1437BD465DF8B7
:10101800047B704700ED00E080B400AF044BDB6850
:101028001B0A03F007031846BD465DF8047B7047AA
:1010380000ED00E080B483B000AF0346FB710949BE
:1010480097F907305B09FA7902F01F02012000FACC
:1010580002F241F8232000BF0C37BD465DF8047B3F
:10106800704700BF00E100E080B483B000AF0346E2
:101078003960FB7197F90730002B0BDA0D49FB79C2
:1010880003F00F03043B3A68D2B21201D2B20B4408
:101098001A7609E0084997F907303A68D2B212017E
:1010A800D2B20B4483F8002300BF0C37BD465DF86D
:1010B800047B704700ED00E000E100E080B489B0F7
:1010C80000AFF860B9607A60FB6803F00703FB6162
:1010D800FB69C3F10703042B28BF0423BB61FB6929
:1010E8000433062B02D9FB69033B00E000237B6134
:1010F8000122BB6902FA03F35A1EBB681A407B69D6
:101108009A4001217B6901FA03F3591E7B680B4061
:10111800134318462437BD465DF8047B704700002A
:1011280080B582B000AF78607B68013BB3F1807F07
:1011380001D301230FE00A4A7B68013B53600F216A
:101148004FF0FF30FFF790FF054B00229A60044BE9
:1011580007221A60002318460837BD4680BD00BF25
:1011680010E000E080B582B000AF78607868FFF7E3
:101178002FFF00BF0837BD4680BD80B586B000AFE1
:101188000346B9607A60FB7300237B61FFF744FF75
:1011980078617A68B9687869FFF790FF024697F92D
:1011A8000F3011461846FFF75FFF00BF1837BD46DE
:1011B80080BD80B582B000AF0346FB7197F9073058
:1011C8001846FFF737FF00BF0837BD4680BD80B51A
:1011D80082B000AF78607868FFF7A2FF0346184630
:1011E8000837BD4680BD000080B487B000AF786086
:1011F800396000237B610023FB6000233B6154E1DD
:101208003B681A6801217B6901FA03F31340FB600C
:10121800FB68002B00F046813B685B68022B03D01B
:101228003B685B68122B23D17B69DA087B6808323C
:1012380053F822303B617B6903F007039B000F22C0
:1012480002FA03F3DB433A6913403B613B681A69CE
:101258007B6903F007039B0002FA03F33A6913431F
:101268003B617B69DA087B680832396943F82210E8
:101278007B681B683B617B695B00032202FA03F30E
:10128800DB433A6913403B613B685B6803F0030248
:101298007B695B0002FA03F33A6913433B617B689D
:1012A8003A691A603B685B68012B0BD03B685B6846
:1012B800022B07D03B685B68112B03D03B685B6847
:1012C800122B30D17B689B683B617B695B000322F2
:1012D80002FA03F3DB433A6913403B613B68DA687F
:1012E8007B695B0002FA03F33A6913433B617B684D
:1012F8003A699A607B685B683B6101227B6902FA04
:1013080003F3DB433A6913403B613B685B681B09A5
:1013180003F001027B6902FA03F33A6913433B6164
:101328007B683A695A607B68DB683B617B695B0074
:10133800032202FA03F3DB433A6913403B613B683B
:101348009A687B695B0002FA03F33A6913433B61CD
:101358007B683A69DA603B685B6803F08053002B6E
:1013680000F0A080584A584B9B6943F001039361F1
:10137800554B9B6903F00103BB60BB68534A7B690B
:101388009B08023352F823303B617B6903F0030367
:101398009B000F2202FA03F3DB433A6913403B61D7
:1013A8007B68B3F1904F19D07B68494A934213D0B8
:1013B8007B68484A93420DD07B68474A934207D0DE
:1013C8007B68464A934201D1042308E0052306E0DE
:1013D800032304E0022302E0012300E000237A69EA
:1013E80002F00302920093403A6913433B61374984
:1013F8007B699B0802333A6941F82320384B1B6804
:101408003B61FB68DB433A6913403B613B685B68BF
:1014180003F48033002B03D03A69FB6813433B6124
:101428002F4A3B6913602E4B5B683B61FB68DB43CB
:101438003A6913403B613B685B6803F40033002B57
:1014480003D03A69FB6813433B61254A3B69536003
:10145800234B9B683B61FB68DB433A6913403B6164
:101468003B685B6803F48013002B03D03A69FB6880
:1014780013433B611A4A3B699360194BDB683B6134
:10148800FB68DB433A6913403B613B685B6803F4E4
:101498000013002B03D03A69FB6813433B61104AE1
:1014A8003B69D3607B6901337B613B681A687B6960
:1014B80022FA03F3002B7FF4A3AE00BF1C37BD460E
:1014C8005DF8047B704700BF001002400000014037
:1014D8000004004800080048000C004800100048BC
:1014E8000004014080B483B000AF78600B467B8075
:1014F80013467B707B78002B03D07A887B689A61CF
:1015080002E07A887B689A6200BF0C37BD465DF8B6
:10151800047B704780B483B000AF78600B467B8053
:101528007B685A697B885A407B685A6100BF0C37D0
:10153800BD465DF8047B704780B582B000AF786027
:101548007B68002B01D1012380E07B6893F8413050
:10155800DBB2002B06D17B68002283F84020786834
:1015680002F0B2FB7B68242283F841207B681B6869
:101578007A681268126822F001021A607B681B6898
:101588007A68526822F070621A617B681B687A6810
:101598001268926822F400429A607B68DB68012B2B
:1015A80007D17B681B687A68926842F400429A60A7
:1015B80006E07B681B687A68926842F404429A6085
:1015C8007B68DB68022B04D17B681B684FF40062E0
:1015D8005A607B681A687B681B685B6843F0007315
:1015E80043F4004353607B681B687A681268D268CA
:1015F80022F40042DA607B681B687A6811697A68AD
:10160800526911437A68926912020A43DA607B6868
:101618001B687A68D1697A68126A0A431A607B681B
:101628001B687A681268126842F001021A607B68C7
:1016380000225A647B68202283F841207B680022BC
:101648001A637B68002283F8422000231846083773
:10165800BD4680BD80B588B002AFF8607A601A4692
:101668000B467B8113463B8100237B61FB6893F823
:101678004130DBB2202B40F0E480FB6893F8403027
:10168800012B01D10223DDE0FB68012283F8402011
:10169800FEF7F0FD78617B690093192301224FF46E
:1016A8000041F86800F0FAF80346002B01D0032344
:1016B800C8E0FB68212283F84120FB68102283F8E8
:1016C8004220FB6800225A64FB687A685A62FB6809
:1016D8003A895A85FB6800225A63FB685B8D9BB286
:1016E800FF2B0ED9FB68FF221A85FB681B8DDAB227
:1016F8007989564B00934FF08073F86800F0E2F94F
:1017080070E0FB685B8D9AB2FB681A85FB681B8DDD
:10171800DAB279894D4B00934FF00073F86800F006
:10172800D1F95FE07A69396AF86800F0F1F80346A0
:10173800002B07D0FB685B6C042B01D1012381E0EF
:1017480003237FE0FB681A68FB685B6A581CF9682A
:1017580048621B789362FB685B8D9BB2013B9AB22F
:10176800FB685A85FB681B8D013B9AB2FB681A859A
:10177800FB681B8D002B35D1FB685B8D9BB2002B62
:1017880030D07B6900933B6A00228021F86800F022
:1017980085F80346002B01D0032353E0FB685B8DDB
:1017A8009BB2FF2B0ED9FB68FF221A85FB681B8DA5
:1017B800DAB27989002300934FF08073F86800F05B
:1017C80081F90FE0FB685B8D9AB2FB681A85FB68AC
:1017D8001B8DDAB27989002300934FF00073F86803
:1017E80000F070F9FB685B8D9BB2002B9AD17A6987
:1017F800396AF86800F0CCF80346002B07D0FB687C
:101808005B6C042B01D101231CE003231AE0FB6865
:101818001B682022DA61FB681A68FB681B68596834
:101828000B4B0B405360FB68202283F84120FB6878
:10183800002283F84220FB68002283F8402000231E
:1018480000E0022318461837BD4680BD00200080FE
:1018580000E800FE80B483B000AF78607B681B6846
:101868009B6903F00203022B03D17B681B680022EB
:101878009A627B681B689B6903F00103012B07D000
:101888007B681B687A681268926942F001029A6163
:1018980000BF0C37BD465DF8047B704780B584B047
:1018A80000AFF860B9603B601346FB711CE03B6811
:1018B800B3F1FF3F18D03B68002B07D0FEF7DAFCE6
:1018C8000246BB69D21A3B689A420DD9FB682022AE
:1018D80083F84120FB68002283F84220FB6800223D
:1018E80083F8402003230FE0FB681B689A69BB68F4
:1018F8001A40BB689A420CBF01230023DBB21A4688
:10190800FB799A42D3D0002318461037BD4680BDD4
:1019180080B584B000AFF860B9607A602CE07A686E
:10192800B968F86800F070F80346002B01D001236D
:101938002AE0BB68B3F1FF3F1ED0BB68002B07D07D
:10194800FEF798FC02467B68D21ABB689A4213D904
:10195800FB685B6C43F02002FB685A64FB6820223A
:1019680083F84120FB68002283F84220FB680022AC
:1019780083F84020032307E0FB681B689B6903F09A
:101988000203022BCBD1002318461037BD4680BD79
:1019980080B584B000AFF860B9607A6028E07A68F2
:1019A800B968F86800F030F80346002B01D001232D
:1019B80026E0BB68002B07D0FEF75CFC02467B687C
:1019C800D21ABB689A4213D9FB685B6C43F02002B9
:1019D800FB685A64FB68202283F84120FB680022D8
:1019E80083F84220FB68002283F84020032307E0A5
:1019F800FB681B689B6903F02003202BCFD10023D1
:101A080018461037BD4680BD80B584B000AFF86079
:101A1800B9607A60FB681B689B6903F01003102BA0
:101A280048D11CE0BB68B3F1FF3F18D0BB68002B5E
:101A380007D0FEF71FFC02467B68D21ABB689A42A1
:101A48000DD9FB68202283F84120FB68002283F827
:101A58004220FB68002283F8402003232BE0FB6828
:101A68001B689B6903F02003202BDBD1FB681B68F4
:101A78001022DA61FB681B682022DA61F868FFF738
:101A8800E9FEFB681A68FB681B6859680C4B0B4039
:101A98005360FB6804225A64FB68202283F84120C3
:101AA800FB68002283F84220FB68002283F840206C
:101AB800012300E0002318461037BD4680BD00BF53
:101AC80000E800FE80B485B000AFF8607B600B468C
:101AD8007B8113467B72FB681A68FB681B68596830
:101AE800BB695B0D03F480600B4B0343DB43194078
:101AF8007B89C3F309007B7A1B0403F47F03184333
:101B08007B681843BB6903430B43536000BF14371A
:101B1800BD465DF8047B7047FF63FF0380B483B064
:101B280000AF786039607B6893F84130DBB2202BD6
:101B380038D17B6893F84030012B01D1022332E081
:101B48007B68012283F840207B68242283F84120A7
:101B58007B681B687A681268126822F001021A60B2
:101B68007B681B687A681268126822F480521A60CF
:101B78007B681B687A68126811683A680A431A60B9
:101B88007B681B687A681268126842F001021A6062
:101B98007B68202283F841207B68002283F840205C
:101BA800002300E0022318460C37BD465DF8047B8D
:101BB800704780B485B000AF786039600023FB605F
:101BC8007B6893F84130DBB2202B39D17B6893F8DE
:101BD8004030012B01D1022333E07B68012283F8D6
:101BE80040207B68242283F841207B681B687A6840
:101BF8001268126822F001021A607B681B681B6871
:101C0800FB60FB6823F47063FB603B681B02FA68A7
:101C18001343FB607B681B68FA681A607B681B6863
:101C28007A681268126842F001021A607B68202202
:101C380083F841207B68002283F84020002300E0DD
:101C4800022318461437BD465DF8047B7047000030
:101C580080B5ADF5007D00AF3B1D18603B1D1B68CE
:101C6800002B02D1012300F0DABE3B1D1B681B6864
:101C780003F00103002B00F06E81B54B5B6803F0A5
:101C88000C03042B0CD0B24B5B6803F00C03082B3D
:101C98005AD1AF4B5B6803F48033B3F5803F53D11F
:101CA8004FF40033C7F8F431D7F8F43193FAA3F3BB
:101CB800C7F8F031D7F8F031B3FA83F3DBB25B0938
:101CC800DBB243F00103DBB2012B02D1A04B1B684E
:101CD80015E04FF40033C7F8EC31D7F8EC3193FA3C
:101CE800A3F3C7F8E8314FF40033C7F8E431D7F865
:101CF800E43193FAA3F3C7F8E031954B5B6A4FF4EC
:101D08000032C7F8DC21D7F8DC2192FAA2F2C7F832
:101D1800D821D7F8D821B2FA82F252B242F0200282
:101D280052B2D2B202F01F02012101FA02F21340AC
:101D3800002B00F00F813B1D1B685B68002B40F0F7
:101D48000981012300F06BBE3B1D1B685B68B3F57E
:101D5800803F06D17E4A7E4B1B6843F48033136074
:101D680030E03B1D1B685B68002B0CD1784A784B30
:101D78001B6823F480331360754A754B1B6823F482
:101D8800802313601EE03B1D1B685B68B3F5A02F22
:101D98000CD16F4A6E4B1B6843F4802313606C4A66
:101DA8006B4B1B6843F4803313600BE0684A684B45
:101DB8001B6823F480331360654A654B1B6823F462
:101DC800802313606249624BDB6A23F00F023B1DDC
:101DD8001B689B681343CB623B1D1B685B68002B29
:101DE8005AD0FEF747FAC7F8F8010AE0FEF742FAB8
:101DF8000246D7F8F831D31A642B02D9032300F02E
:101E08000EBE4FF40033C7F8D431D7F8D43193FA63
:101E1800A3F3C7F8D031D7F8D031B3FA83F3DBB2E4
:101E28005B09DBB243F00103DBB2012B02D1484B63
:101E38001B6815E04FF40033C7F8CC31D7F8CC3124
:101E480093FAA3F3C7F8C8314FF40033C7F8C43185
:101E5800D7F8C43193FAA3F3C7F8C0313C4B5B6A97
:101E68004FF40032C7F8BC21D7F8BC2192FAA2F28D
:101E7800C7F8B821D7F8B821B2FA82F252B242F0C4
:101E8800200252B2D2B202F01F02012101FA02F27C
:101E98001340002BAAD05EE0FEF7ECF9C7F8F80172
:101EA8000AE0FEF7E7F90246D7F8F831D31A642BAF
:101EB80002D9032300F0B3BD4FF40033C7F8B4319F
:101EC800D7F8B43193FAA3F3C7F8B031D7F8B031E3
:101ED800B3FA83F3DBB25B09DBB243F00103DBB295
:101EE800012B02D11A4B1B6815E04FF40033C7F8D9
:101EF800AC31D7F8AC3193FAA3F3C7F8A8314FF453
:101F08000033C7F8A431D7F8A43193FAA3F3C7F87C
:101F1800A0310F4B5B6A4FF40032C7F89C21D7F809
:101F28009C2192FAA2F2C7F89821D7F89821B2FA20
:101F380082F252B242F0200252B2D2B202F01F0232
:101F4800012101FA02F21340002BAAD103E000BFDD
:101F58000010024000BF3B1D1B681B6803F0020312
:101F6800002B00F07081D04B5B6803F00C03002B52
:101F78000BD0CD4B5B6803F00C03082B6DD1CA4B1B
:101F88005B6803F48033002B67D10223C7F89431D0
:101F9800D7F8943193FAA3F3C7F89031D7F8903172
:101FA800B3FA83F3DBB25B09DBB243F00103DBB2C4
:101FB800012B02D1BC4B1B6813E00223C7F88C31FC
:101FC800D7F88C3193FAA3F3C7F888310223C7F8FE
:101FD8008431D7F8843193FAA3F3C7F88031B24B30
:101FE8005B6A0222C7F87C21D7F87C2192FAA2F218
:101FF800C7F87821D7F87821B2FA82F252B242F0C3
:10200800200252B2D2B202F01F02012101FA02F2FA
:102018001340002B07D03B1D1B681B69012B02D006
:10202800012300F0FCBCA0489F4B1B6823F0F8027A
:102038003B1D1B685969F823C7F87431D7F8743108
:1020480093FAA3F3C7F87031D7F87031B3FA83F372
:1020580001FA03F313430360F5E03B1D1B681B699A
:10206800002B00F085800123C7F86C31D7F86C315C
:1020780093FAA3F3C7F86831D7F86831B3FA83F352
:1020880003F1845303F584139B001A46012313605C
:10209800FEF7F0F8C7F8F8010AE0FEF7EBF8024699
:1020A800D7F8F831D31A022B02D9032300F0B7BCB2
:1020B8000223C7F86431D7F8643193FAA3F3C7F859
:1020C8006031D7F86031B3FA83F3DBB25B09DBB276
:1020D80043F00103DBB2012B02D1734B1B6813E001
:1020E8000223C7F85C31D7F85C3193FAA3F3C7F839
:1020F80058310223C7F85431D7F8543193FAA3F36F
:10210800C7F85031684B5B6A0222C7F84C21D7F8F0
:102118004C2192FAA2F2C7F84821D7F84821B2FA1E
:1021280082F252B242F0200252B2D2B202F01F0240
:10213800012101FA02F21340002BAED05A485A4B43
:102148001B6823F0F8023B1D1B685969F823C7F880
:102158004431D7F8443193FAA3F3C7F84031D7F89C
:102168004031B3FA83F301FA03F3134303606AE0DF
:102178000123C7F83C31D7F83C3193FAA3F3C7F8E9
:102188003831D7F83831B3FA83F303F1845303F5C0
:1021980084139B001A4600231360FEF76BF8C7F8F8
:1021A800F8010AE0FEF766F80246D7F8F831D31AC4
:1021B800022B02D9032300F032BC0223C7F83431C2
:1021C800D7F8343193FAA3F3C7F83031D7F8303160
:1021D800B3FA83F3DBB25B09DBB243F00103DBB292
:1021E800012B02D1304B1B6813E00223C7F82C31B6
:1021F800D7F82C3193FAA3F3C7F828310223C7F88C
:102208002431D7F8243193FAA3F3C7F82031264BA9
:102218005B6A0222C7F81C21D7F81C2192FAA2F2A5
:10222800C7F81821D7F81821B2FA82F252B242F050
:10223800200252B2D2B202F01F02012101FA02F2C8
:102248001340002BAED13B1D1B681B6803F008032D
:10225800002B00F0D8803B1D1B689B69002B67D0C2
:102268000123C7F81431D7F8143193FAA3F3C7F848
:102278001031D7F81031B3FA83F31A460B4B1344D5
:102288009B001A4601231360FDF7F4FFC7F8F80115
:102298000EE0FDF7EFFF0246D7F8F831D31A022B0C
:1022A80006D90323BBE300BF001002402081901031
:1022B8000223C7F80C31D7F80C3193FAA3F3C7F807
:1022C80008310223C7F80431D7F8043193FAA3F28E
:1022D80007F580731A6007F1FC0302221A6007F100
:1022E800FC031B6893FAA3F207F1F8031A60A54BE5
:1022F8005A6A07F1F4030221196007F1F4031B6815
:1023080093FAA3F107F1F003196007F1F0031B68D2
:10231800B3FA83F35BB243F060035BB2DBB203F062
:102328001F03012101FA03F31340002BB1D06AE027
:1023380007F1EC0301221A6007F1EC031B6893FA1A
:10234800A3F207F1E8031A6007F1E8031B68B3FA80
:1023580083F31A468C4B13449B001A4600231360E0
:10236800FDF788FFC7F8F80109E0FDF783FF02468B
:10237800D7F8F831D31A022B01D903234FE307F119
:10238800E40302221A6007F1E4031B6893FAA3F23C
:1023980007F1E0031A6007F1DC0302221A6007F173
:1023A800DC031B6893FAA3F207F1D8031A6007F15C
:1023B800D40302221A6007F1D4031B6893FAA3F22C
:1023C80007F1D0031A606F4B5A6A07F1CC03022158
:1023D800196007F1CC031B6893FAA3F107F1C8034E
:1023E800196007F1C8031B68B3FA83F35BB243F0C3
:1023F80060035BB2DBB203F01F03012101FA03F3B0
:102408001340002BB1D13B1D1B681B6803F004036C
:10241800002B00F05981002387F8FF31594BDB6905
:1024280003F08053002B12D1564A564BDB6943F018
:102438008053D361534BDB6903F0805207F10C03DF
:102448001A6007F10C031B68012387F8FF314F4B13
:102458001B6803F48073002B1AD14C4A4B4B1B6842
:1024680043F480731360FDF705FFC7F8F80109E02E
:10247800FDF700FF0246D7F8F831D31A642B01D9CB
:102488000323CCE2414B1B6803F48073002BEFD08D
:102498003B1D1B68DB68012B06D13A4A394B1B6A86
:1024A80043F0010313622FE03B1D1B68DB68002B20
:1024B8000CD1344A334B1B6A23F001031362314AAF
:1024C800304B1B6A23F0040313621DE03B1D1B689D
:1024D800DB68052B0CD12B4A2A4B1B6A43F00403FB
:1024E8001362284A274B1B6A43F0010313620BE06F
:1024F800244A244B1B6A23F001031362214A214B0F
:102508001B6A23F0040313623B1D1B68DB68002B66
:102518006BD0FDF7AFFEC7F8F8010BE0FDF7AAFE98
:102528000246D7F8F831D31A41F28832934201D9DA
:10253800032374E207F1C40302221A6007F1C403FB
:102548001B6893FAA3F207F1C0031A6007F1BC03F2
:1025580002221A6007F1BC031B6893FAA3F207F181
:10256800B8031A6007F1B8031B68B3FA83F3DBB248
:102578005B09DBB243F00203DBB2022B08D1014B4B
:102588001B6A13E000100240208190100070004088
:1025980007F1B40302221A6007F1B4031B6893FA27
:1025A800A3F207F1B0031A60BB4B5B6A07F1AC02F8
:1025B8000221116007F1AC02126892FAA2F107F148
:1025C800A802116007F1A8021268B2FA82F252B2A8
:1025D80042F0400252B2D2B202F01F02012101FAC7
:1025E80002F21340002B99D064E0FDF743FEC7F8D0
:1025F800F8010BE0FDF73EFE0246D7F8F831D31A92
:1026080041F28832934201D9032308E207F1A40377
:1026180002221A6007F1A4031B6893FAA3F207F1D8
:10262800A0031A6007F19C0302221A6007F19C03B9
:102638001B6893FAA3F207F198031A6007F198034D
:102648001B68B3FA83F3DBB25B09DBB243F0020326
:10265800DBB2022B02D1904B1B6A0DE007F1940309
:1026680002221A6007F194031B6893FAA3F207F198
:1026780090031A60884B5B6A07F18C020221116093
:1026880007F18C02126892FAA2F107F18802116030
:1026980007F188021268B2FA82F252B242F040029E
:1026A80052B2D2B202F01F02012101FA02F2134023
:1026B800002B9FD197F8FF31012B05D1764A764B35
:1026C800DB6923F08053D3613B1D1B68DB69002B5A
:1026D80000F0A481704B5B6803F00C03082B00F03A
:1026E8009B813B1D1B68DB69022B40F0138107F1BE
:1026F80084034FF080721A6007F184031B6893FA11
:10270800A3F207F180031A6007F180031B68B3FA8C
:1027180083F303F1845303F584139B001A460023C3
:102728001360FDF7A7FDC7F8F80109E0FDF7A2FD62
:102738000246D7F8F831D31A022B01D903236EE1E8
:1027480007F17C034FF000721A6007F17C031B68E5
:1027580093FAA3F207F178031A6007F178031B686C
:10276800B3FA83F3DBB25B09DBB243F00103DBB2FC
:10277800012B02D1484B1B681BE007F174034FF093
:1027880000721A6007F174031B6893FAA3F207F149
:1027980070031A6007F16C034FF000721A6007F1BA
:1027A8006C031B6893FAA3F207F168031A603A4BAB
:1027B8005B6A07F164024FF00071116007F164026F
:1027C800126892FAA2F107F16002116007F1600243
:1027D8001268B2FA82F252B242F0200252B2D2B277
:1027E80002F01F02012101FA02F21340002B9DD1D1
:1027F8002948294B5B6823F474123B1D1B68596AEE
:102808003B1D1B681B6A0B431343436007F15C03C2
:102818004FF080721A6007F15C031B6893FAA3F209
:1028280007F158031A6007F158031B68B3FA83F3DA
:1028380003F1845303F584139B001A4601231360A4
:10284800FDF718FDC7F8F80109E0FDF713FD02468A
:10285800D7F8F831D31A022B01D90323DFE007F1A7
:1028680054034FF000721A6007F154031B6893FA7F
:10287800A3F207F150031A6007F150031B68B3FA7B
:1028880083F3DBB25B09DBB243F00103DBB2012B5C
:1028980004D1014B1B681DE00010024007F14C03F6
:1028A8004FF000721A6007F14C031B6893FAA3F209
:1028B80007F148031A6007F144034FF000721A60E9
:1028C80007F144031B6893FAA3F207F140031A6067
:1028D800554B5B6A07F13C024FF00071116007F13C
:1028E8003C02126892FAA2F107F13802116007F16E
:1028F80038021268B2FA82F252B242F0200252B2A0
:10290800D2B202F01F02012101FA02F21340002B99
:102918009BD083E007F134034FF080721A6007F10F
:1029280034031B6893FAA3F207F130031A6007F126
:1029380030031B68B3FA83F303F1845303F584135C
:102948009B001A4600231360FDF794FCC7F8F801B2
:1029580009E0FDF78FFC0246D7F8F831D31A022BAD
:1029680001D903235BE007F12C034FF000721A60D2
:1029780007F12C031B6893FAA3F207F128031A60E6
:1029880007F128031B68B3FA83F3DBB25B09DBB2F8
:1029980043F00103DBB2012B02D1234B1B681BE080
:1029A80007F124034FF000721A6007F124031B6833
:1029B80093FAA3F207F120031A6007F11C034FF002
:1029C80000721A6007F11C031B6893FAA3F207F15F
:1029D80018031A60144B5B6A07F114024FF0007178
:1029E800116007F11402126892FAA2F107F11002BD
:1029F800116007F110021268B2FA82F252B242F084
:102A0800200252B2D2B202F01F02012101FA02F2F0
:102A18001340002B9DD101E0012300E0002318465C
:102A280007F50077BD4680BD0010024080B59EB016
:102A380000AF7860396000237B677B68002B01D189
:102A4800012364E1924B1B6803F007023B689A423A
:102A580010D28F498E4B1B6823F007023B68134343
:102A68000B608B4B1B6803F007023B689A4201D04E
:102A780001234CE17B681B6803F00203002B08D09C
:102A88008449844B5B6823F0F0027B689B6813439E
:102A98004B607B681B6803F00103002B00F0DF80AC
:102AA8007B685B68012B3DD14FF400333B673B6F7C
:102AB80093FAA3F3FB66FB6EB3FA83F3DBB25B090D
:102AC800DBB243F00103DBB2012B02D1714B1B686F
:102AD8000FE04FF40033BB66BB6E93FAA3F37B663B
:102AE8004FF400333B663B6E93FAA3F3FB65694BE7
:102AF8005B6A4FF40032BA65BA6D92FAA2F27A654F
:102B08007A6DB2FA82F252B242F0200252B2D2B2D6
:102B180002F01F02012101FA02F21340002B7DD1BD
:102B28000123F4E07B685B68022B3DD14FF0007312
:102B38003B653B6D93FAA3F3FB64FB6CB3FA83F339
:102B4800DBB25B09DBB243F00103DBB2012B02D13C
:102B5800504B1B680FE04FF00073BB64BB6C93FADB
:102B6800A3F37B644FF000733B643B6C93FAA3F3CD
:102B7800FB63484B5B6A4FF00072BA63BA6B92FA18
:102B8800A2F27A637A6BB2FA82F252B242F020026F
:102B980052B2D2B202F01F02012101FA02F213402E
:102BA800002B3BD10123B2E002233B633B6B93FA3A
:102BB800A3F3FB62FB6AB3FA83F3DBB25B09DBB214
:102BC80043F00103DBB2012B02D1324B1B680DE04D
:102BD8000223BB62BB6A93FAA3F37B6202233B62C4
:102BE8003B6A93FAA3F3FB612A4B5B6A0222BA6140
:102BF800BA6992FAA2F27A617A69B2FA82F252B2A8
:102C080042F0200252B2D2B202F01F02012101FAB0
:102C180002F21340002B01D1012378E01D491D4B1E
:102C28005B6823F003027B685B6813434B60FDF726
:102C380021FB78670AE0FDF71DFB02467B6FD31A7C
:102C480041F28832934201D9032360E0114B5B685B
:102C580003F00C027B685B689B009A42EBD10C4B3B
:102C68001B6803F007023B689A4215D90849084BCC
:102C78001B6823F007023B6813430B60044B1B6877
:102C880003F007023B689A4206D001233FE000BFE9
:102C980000200240001002407B681B6803F0040318
:102CA800002B08D01C491C4B5B6823F4E0627B684E
:102CB800DB6813434B607B681B6803F00803002B39
:102CC80009D01549144B5B6823F460527B681B6973
:102CD800DB0013434B6000F025F801460E4B5B68A0
:102CE80003F0F002F0233B613B6993FAA3F3FB6026
:102CF800FB68B3FA83F322FA03F3084AD35C21FA98
:102D080003F3074A13600020FDF770FA0023184602
:102D18007837BD4680BD00BF00100240D043000890
:102D28000800002080B48BB000AF0023FB610023B3
:102D3800BB6100237B6200237B6100233B62294B3C
:102D48005B68FB61FB6903F00C03042B02D0082BC2
:102D580003D03CE0244B3B623CE0FB6903F4701277
:102D68004FF47013BB60BB6893FAA3F37B607B6876
:102D7800B3FA83F322FA03F31C4AD35C7B61194B41
:102D8800DB6A03F00F020F233B613B6993FAA3F35D
:102D9800FB60FB68B3FA83F322FA03F3144AD35CAB
:102DA800BB61FB6903F48033002B08D00E4ABB6972
:102DB800B2FBF3F37A6902FB03F37B6204E07B69FD
:102DC8000C4A02FB03F37B627B6A3B6202E0064B20
:102DD8003B6200BF3B6A18462C37BD465DF8047B52
:102DE800704700BF0010024000127A00B04300088C
:102DF800C043000800093D0080B400AF034B1B68C6
:102E08001846BD465DF8047B704700BF08000020E7
:102E180080B582B000AFFFF7EFFF01460B4B5B6850
:102E280003F4E0624FF4E0637B607B6893FAA3F3FA
:102E38003B603B68B3FA83F322FA03F3044AD35C9A
:102E480021FA03F318460837BD4680BD001002403A
:102E5800E043000880B582B000AFFFF7CDFF014620
:102E68000B4B5B6803F460524FF460537B607B68E4
:102E780093FAA3F33B603B68B3FA83F322FA03F3B4
:102E8800044AD35C21FA03F318460837BD4680BDCF
:102E980000100240E043000880B592B000AF7860AF
:102EA80000233B640023FB637B681B6803F48033C7
:102EB800002B00F0D680002387F847304D4BDB69A4
:102EC80003F08053002B0ED14A4A4A4BDB6943F08A
:102ED8008053D361474BDB6903F08053BB60BB6809
:102EE800012387F84730444B1B6803F48073002B99
:102EF80018D1414A404B1B6843F480731360FDF7B7
:102F0800B9F9386408E0FDF7B5F902463B6CD31A05
:102F1800642B01D9032368E1374B1B6803F48073E2
:102F2800002BF0D0334B1B6A03F44073FB63FB6B3D
:102F3800002B00F083807B685B6803F44072FB6BB6
:102F48009A427BD02B4B1B6A23F44073FB634FF4EC
:102F580080333B633B6B93FAA3F3FB62FB6AB3FAE0
:102F680083F31A46254B13449B001A46012313602A
:102F78004FF48033BB63BB6B93FAA3F37B637B6B28
:102F8800B3FA83F31A461D4B13449B001A460023D9
:102F98001360184AFB6B1362FB6B03F00103002BF1
:102FA8004CD0FDF767F938640AE0FDF763F902468B
:102FB8003B6CD31A41F28832934201D9032314E1BE
:102FC8000223BB62BB6A93FAA3F37B6202233B62D0
:102FD8003B6A93FAA3F3FB61FB69B3FA83F3DBB2B1
:102FE8005B09DBB243F00203DBB2022B08D1014BD1
:102FF8001B6A0DE000100240007000400081901034
:103008000223BB61BB6993FAA3F37B61794B5B6ACB
:1030180002223A613A6992FAA2F2FA60FA68B2FABE
:1030280082F252B242F0400252B2D2B202F01F0211
:10303800012101FA02F21340002BB6D06D496D4B05
:103048001B6A23F440727B685B6813430B6297F832
:103058004730012B05D1674A664BDB6923F0805363
:10306800D3617B681B6803F00103002B08D061491A
:10307800604B1B6B23F003027B689B6813430B6355
:103088007B681B6803F00203002B08D05949594B91
:103098001B6B23F440327B68DB6813430B637B684C
:1030A8001B6803F00403002B08D05249514B1B6BDB
:1030B80023F440227B681B6913430B637B681B68FE
:1030C80003F02003002B08D04A494A4B1B6B23F01E
:1030D80010027B68DB6913430B637B681B6803F48E
:1030E8000033002B08D04349424B5B6823F480022D
:1030F8007B689B6B13434B607B681B6803F0400342
:10310800002B08D03B493B4B1B6B23F020027B680C
:103118001B6A13430B637B681B6803F00803002BCF
:1031280008D03449334B1B6B23F440127B685B692E
:1031380013430B637B681B6803F01003002B08D054
:103148002C492C4B1B6B23F440027B689B6913436F
:103158000B637B681B6803F40073002B08D02549B8
:10316800244B5B6823F400027B68DB6A13434B60E3
:103178007B681B6803F08003002B08D01D491D4B9A
:10318800DB6A23F4F8727B685B6A1343CB627B6863
:103198001B6803F48073002B08D01649154BDB6AB3
:1031A80023F478527B689B6A1343CB627B681B6865
:1031B80003F48053002B08D00E490E4B1B6B23F4ED
:1031C80080727B681B6B13430B637B681B6803F47B
:1031D8000053002B08D00749064B1B6B23F40072E1
:1031E8007B685B6B13430B63002318464837BD4667
:1031F80080BD00BF0010024080B582B000AF78608B
:103208007B68002B01D1012343E07B6893F8693088
:10321800DBB2002B06D17B68002283F8682078682F
:1032280000F0ECFF7B68242283F869207B681B6828
:103238007A681268126822F001021A60786800F051
:103248002DF80346012B01D1012322E07B685B6A3C
:10325800002B02D0786800F01FFA7B681B687A6838
:103268001268526822F490425A607B681B687A6838
:103278001268926822F02A029A607B681B687A6852
:103288001268126842F001021A60786800F0A6FA23
:10329800034618460837BD4680BD000090B587B084
:1032A80000AF78600023FB601023FB7500237B814F
:1032B8000023BB820023FB747B689A687B681B69C8
:1032C8001A437B685B691A437B68DB691343FB60BD
:1032D8007B681A687B681B681B6823F4164323F015
:1032E8000C03F9680B4313607B681B687A681268E3
:1032F800526822F440517A68D2680A435A607B685F
:103308009A697B681B6A1343FB607B681B687A6851
:103318001268926822F43061FA680A439A607B68FE
:103328001B68B44A934221D1B34B1B6B03F00303D0
:10333800032B17D801A252F823F000BF5533000819
:1033480061330008673300085B3300080123FB750D
:10335800B2E00223FB75AFE00423FB75ACE0082361
:10336800FB75A9E01023FB7500BFA5E07B681B680F
:10337800A24A934223D1A04B1B6B03F44033B3F50D
:10338800803F12D0B3F5803F02D8002B07D012E05F
:10339800B3F5003F0CD0B3F5403F03D00BE000235A
:1033A800FB7589E00223FB7586E00423FB7583E047
:1033B8000823FB7580E01023FB7500BF7CE07B6869
:1033C8001B688F4A934223D18B4B1B6B03F440231A
:1033D800B3F5802F12D0B3F5802F02D8002B07D079
:1033E80012E0B3F5002F0CD0B3F5402F03D00BE05B
:1033F8000023FB7560E00223FB755DE00423FB7589
:103408005AE00823FB7557E01023FB7500BF53E013
:103418007B681B687B4A934223D1774B1B6B03F471
:103428004013B3F5801F12D0B3F5801F02D8002BCC
:1034380007D012E0B3F5001F0CD0B3F5401F03D03E
:103448000BE00023FB7537E00223FB7534E004230F
:10345800FB7531E00823FB752EE01023FB7500BFD8
:103468002AE07B681B68684A934223D1624B1B6B36
:1034780003F44003B3F5800F12D0B3F5800F02D8E0
:10348800002B07D012E0B3F5000F0CD0B3F5400FB6
:1034980003D00BE00023FB750EE00223FB750BE065
:1034A8000423FB7508E00823FB7505E01023FB7572
:1034B80000BF01E01023FB757B68DB69B3F5004FA3
:1034C8006FD1FB7D082B57D801A252F823F000BF1B
:1034D800FD34000819350008353500088135000825
:1034E8004F3500088135000881350008813500080E
:1034F8006B350008FFF78CFC03465A007B685B6855
:103508005B081A447B685B68B2FBF3F3BB8236E066
:10351800FFF7A0FC03465A007B685B685B081A4407
:103528007B685B68B2FBF3F3BB8228E07B685B686F
:103538005B0803F5740303F510537A685268B3FB0C
:10354800F2F3BB821BE0FFF7EDFB03465A007B68F2
:103558005B685B081A447B685B68B2FBF3F3BB8269
:103568000DE07B685B685B0803F580327B685B680D
:10357800B2FBF3F3BB8202E00123FB7400BFBB8AFA
:1035880023F00F037B81BB8A5B109BB203F0070318
:103598009AB27B8913437B817B681B687A89DA60DE
:1035A80075E0FB7D082B6FD801A252F823F000BF0D
:1035B800DD35000815360008353600089136000854
:1035C80055360008913600089136000891360008F3
:1035D800753600087B681C68FFF71AFC02467B6892
:1035E8005B685B081A447B685B68B2FBF3F39BB2C9
:1035F800E3604CE000380140001002400044004005
:1036080000480040004C0040005000407B681C68A7
:10361800FFF720FC02467B685B685B081A447B68FE
:103628005B68B2FBF3F39BB2E36030E07B681A6837
:103638007B685B685B0803F5F40303F590537968CE
:103648004968B3FBF1F39BB2D36020E07B681C6848
:10365800FFF768FB02467B685B685B081A447B6877
:103668005B68B2FBF3F39BB2E36010E07B681B6816
:103678007A685268520802F500417A685268B1FBCC
:10368800F2F292B2DA6002E00123FB7400BFFB7C25
:1036980018461C37BD4690BD80B483B000AF786033
:1036A8007B685B6A03F00103002B0AD07B681B6808
:1036B8007A681268526822F400317A68926A0A437A
:1036C8005A607B685B6A03F00203002B0AD07B68B0
:1036D8001B687A681268526822F480317A68D26A64
:1036E8000A435A607B685B6A03F00403002B0AD024
:1036F8007B681B687A681268526822F480217A68AD
:10370800126B0A435A607B685B6A03F00803002B5C
:103718000AD07B681B687A681268526822F40041F4
:103728007A68526B0A435A607B685B6A03F010033D
:10373800002B0AD07B681B687A681268926822F4AA
:1037480080517A68926B0A439A607B685B6A03F0DF
:103758002003002B0AD07B681B687A68126892687D
:1037680022F400517A68D26B0A439A607B685B6ADC
:1037780003F04003002B1AD07B681B687A68126834
:10378800526822F480117A68126C0A435A607B6886
:103798001B6CB3F5801F0AD17B681B687A681268B6
:1037A800526822F4C0017A68526C0A435A607B68F6
:1037B8005B6A03F08003002B0AD07B681B687A6879
:1037C8001268526822F400217A68926C0A435A609F
:1037D80000BF0C37BD465DF8047B704780B586B0E6
:1037E80002AF78600023FB607B680022DA66FCF792
:1037F80041FDF8607B681B681B6803F00803082B11
:103808000ED16FF07E430093FB6800224FF4001145
:10381800786800F02CF80346002B01D0032322E03F
:103828007B681B681B6803F00403042B0ED16FF040
:103838007E430093FB6800224FF48001786800F013
:1038480016F80346002B01D003230CE07B682022E6
:1038580083F869207B68202283F86A207B6800222D
:1038680083F86820002318461037BD4680BD80B510
:1038780084B000AFF860B9603B601346FB712CE080
:10388800BB69B3F1FF3F28D0BB69002B07D0FCF719
:10389800F1FC02463B68D21ABB699A421DD9FB6803
:1038A8001B68FA681268126822F4D0721A60FB6802
:1038B8001B68FA681268926822F001029A60FB6835
:1038C800202283F86920FB68202283F86A20FB689D
:1038D800002283F8682003230FE0FB681B68DA697D
:1038E800BB681A40BB689A420CBF01230023DBB2B5
:1038F8001A46FB799A42C3D0002318461037BD46B2
:1039080080BD000080B500AF174B184A1A60164BEF
:1039180014225A60144B00229A60134B0022DA607A
:10392800114B4FF4A0221A610F4B00225A610E4B23
:1039380000221A760C4B01225A760B4B01229A76FA
:10394800094B0122DA76084B00221A77064B00222F
:103958005A770548FCF7BCFC0346002B01D000F061
:1039680065FB00BF80BD00BF580000200064004018
:1039780080B58AB000AF786007F1140300221A609E
:103988005A609A60DA601A617B681B68204A934221
:1039980039D1204A1F4BDB6943F00073D3611D4BBB
:1039A800DB6903F000733B613B691A4A194B5B6999
:1039B80043F400335361174B5B6903F40033FB6036
:1039C800FB684FF4C0537B610223BB610023FB619A
:1039D80003233B6209237B6207F1140319464FF066
:1039E8009040FDF701FC002200211320FDF7C5FBE4
:1039F8001320FDF7DEFB002200211420FDF7BDFB9C
:103A08001420FDF7D6FB00BF2837BD4680BD00BF98
:103A1800006400400010024080B582B000AF034649
:103A28000A46FB711346BB712B48FCF759FE034647
:103A3800002B01D000F0FAFA284B00225A61274BDC
:103A480000229A61254B0122DA61FB795B011A4653
:103A5800224B1A60214B00225A60204B00229A60A8
:103A68001E4B0022DA601D4B00221A611B4B0122FB
:103A78001A621A4B0E225A6218491748FCF722FD9F
:103A88000346002B01D000F0D1FA1348FCF7E4FDFF
:103A98000346002B01D000F0C9FA03210E48FDF7B8
:103AA80052F80346002B01D000F0C0FA0C4B032259
:103AB8001A600B4B00225A60094B0022DA60084B4F
:103AC80000229A60064B01221A61054B00221A75E2
:103AD80000BF0837BD4680BD5800002030000020D8
:103AE800AC00002080B483B000AF786000BF00BF96
:103AF8000C37BD465DF8047B7047000080B582B086
:103B080000AF786000BF234B1B78002B10D1224BED
:103B1800224A00217868FCF703FF0346002B02D0F5
:103B280000F084FA31E01E4B01221A7000BF2CE02D
:103B38001C4B1A4A00217868FCF7F2FE0346002B5A
:103B480002D000F073FA20E0164B1A79164B1A705F
:103B5800144B5A79144B5A70124B9A79124B9A702B
:103B6800104BDA79104BDA700E4B1A780F4B1A702B
:103B78000C4B5A780D4B5A700A4B9A780B4B9A702B
:103B8800084BDA78094BDA7000BF00BF0837BD462A
:103B980080BD00BF2900002094000020C400002040
:103BA80028000020A000002090000020E000002055
:103BB80080B588B000AF07F10C0300221A605A6084
:103BC8009A60DA601A611E4A1D4B5B6943F4001360
:103BD80053611B4B5B6903F40013BB60BB68184A55
:103BE800174B5B6943F480235361154B5B6903F4FE
:103BF80080237B607B68124A114B5B6943F4003376
:103C080053610F4B5B6903F400333B603B68002250
:103C18004FF400510B48FDF765FC4FF40053FB606F
:103C280001233B6100237B610023BB6107F10C0387
:103C380019460448FDF7D8FA00BF2037BD4680BDB5
:103C4800001002400004004880B500AF1B4B1C4A1E
:103C58001A601A4B1B4A5A60184B00229A60174B7D
:103C68000122DA60154B00221A61144B00225A61B6
:103C7800124B00229A61114B0022DA610F4B00228D
:103C88001A620E48FDF758FC0346002B01D000F0DD
:103C9800CDF900210948FDF741FF0346002B01D06B
:103CA80000F0C4F900210548FDF783FF0346002B07
:103CB80001D000F0BBF900BF80BD00BFE4000020C8
:103CC800005400400E09002080B58AB000AF78602B
:103CD80007F1140300221A605A609A60DA601A61C8
:103CE8007B681B68174A934227D1174A164B5B69B2
:103CF80043F480235361144B5B6903F480233B61D5
:103D08003B69C0237B611223BB610123FB61032351
:103D18003B6204237B6207F1140319460B48FDF745
:103D280063FA094A084BDB6943F40013D361064B75
:103D3800DB6903F40013FB60FB6800BF2837BD464E
:103D480080BD00BF0054004000100240000400483D
:103D580080B586B002AF0346FB7197F9073023F0B0
:103D68000F035BB243F00C035BB2FB7397F90730A8
:103D780023F00F035BB243F008035BB2BB73FB791C
:103D88001B015BB243F00C035BB27B73FB791B0135
:103D98005BB243F008035BB23B73FB7B3B72BB7BBC
:103DA8007B727B7BBB723B7BFB7207F1080264234F
:103DB800009304237E210548FDF74CFC0A20FCF7FC
:103DC80065FA00BF1037BD4680BD00BFE400002083
:103DD80080B586B002AF0346FB7197F9073023F030
:103DE8000F035BB243F00D035BB2FB7397F9073027
:103DF80023F00F035BB243F009035BB2BB73FB799B
:103E08001B015BB243F00D035BB27B73FB791B01B3
:103E18005BB243F009035BB23B73FB7B3B72BB7B3A
:103E28007B727B7BBB723B7BFB7207F108026423CE
:103E3800009304237E210548FDF70CFC0A20FCF7BB
:103E480025FA00BF1037BD4680BD00BFE400002042
:103E580080B500AF0120FFF77BFF00BF80BD80B5B4
:103E680084B000AF78600023FB6009E07A68FB68E3
:103E780013441B781846FFF7ABFFFB680133FB6060
:103E88007A68FB6813441B78002BEFD100BF10370A
:103E9800BD4680BD80B584B000AF0D4A3B1D92E899
:103EA80003001860043319700023FB6009E03A1D11
:103EB800FB6813441B781846FFF74AFFFB68013379
:103EC800FB60FB68042BF2D900BF1037BD4680BDEC
:103ED8009843000880B582B000AFFCF771F900F094
:103EE8004DF8FFF765FE00F059F9FFF70BFDFFF7F6
:103EF800ABFEAA23FB713223BB71092200211648AD
:103F080000F02EFA09220021134800F029FAFFF7E1
:103F1800C1FFFFF79DFF1148FFF7A1FF082101200E
:103F2800FFF77AFD0E4B00221A700E4B1B78002B00
:103F3800FBD00D4B1B690D4A13610D4B064A0B490B
:103F48000C48FCF716FC4FF400510B48FDF7E2FA59
:103F5800044B00221A70E8E794000020A0430008F0
:103F68002900002028000020C4000020AC00002008
:103F78008C000020580000200004004880B59EB046
:103F880000AF07F1500328220021184600F0E8F995
:103F980007F13C0300221A605A609A60DA601A61DD
:103FA8003B463C220021184600F0DAF902233B6523
:103FB80001233B6610237B660223FB6600233B67D5
:103FC8004FF460137B6707F150031846FDF740FE76
:103FD8000346002B01D000F029F80F23FB630223CE
:103FE8003B6400237B644FF48063BB640023FB6461
:103FF80007F13C0302211846FEF718FD0346002B83
:1040080001D000F013F824233B6000233B61002318
:10401800FB613B461846FEF73FFF0346002B01D0E5
:1040280000F004F800BF7837BD4680BD80B400AF0B
:1040380000BFBD465DF8047B7047000080B483B0C4
:1040480000AF0F4A0E4B9B6943F0010393610C4B81
:104058009B6903F001037B607B68094A084BDB69B5
:1040680043F08053D361064BDB6903F080533B6018
:104078003B6800BF0C37BD465DF8047B704700BF46
:104088000010024080B400AF00BFBD465DF8047B5D
:10409800704780B400AFFEE780B400AFFEE780B49D
:1040A80000AFFEE780B400AFFEE780B400AF00BF0A
:1040B800BD465DF8047B704780B400AF00BFBD46C5
:1040C8005DF8047B704780B400AF00BFBD465DF863
:1040D800047B704780B500AFFCF7B8F800BF80BD1F
:1040E80080B500AF0248FCF754FD00BF80BD00BF9B
:1040F8005800002080B500AF0248FCF74AFD00BF19
:1041080080BD00BF5800002080B400AF1F4A1F4B7D
:10411800D3F8883043F47003C2F888301C4A1C4B2B
:104128001B6843F0010313601949194B5A68194B6E
:1041380013404B60164A164B1B6823F0847323F414
:1041480080331360124A124B1B6823F480231360D8
:104158000F4A0F4B5B6823F4FE0353600C4A0C4B69
:10416800DB6A23F00F03D3620949094B1A6B0A4B28
:1041780013400B63064B00229A60044B4FF0006219
:104188009A6000BFBD465DF8047B704700ED00E013
:10419800001002400CC07FF8CCFC00FF80B500AFD7
:1041A800144B154A1A60134B4FF416525A60114BB0
:1041B80000229A600F4B0022DA600E4B00221A612F
:1041C8000C4B0C225A610B4B00229A61094B0022BE
:1041D800DA61084B00221A62064B00225A6205482F
:1041E800FFF70AF80346002B01D0FFF71FFF00BFB7
:1041F80080BD00BF300100200048004080B58AB073
:1042080000AF786007F1140300221A605A609A60C0
:10421800DA601A617B681B68264A934245D1264AB0
:10422800254BDB6943F48023D361234BDB6903F41B
:1042380080233B613B69204A1F4B5B6943F40013B1
:1042480053611D4B5B6903F40013FB60FB681A4A5A
:10425800194B5B6943F480235361174B5B6903F483
:104268008023BB60BB684FF400437B610223BB61C2
:104278000023FB6103233B6207237B6207F11403DE
:1042880019460E48FCF7B0FF4FF480637B610223A8
:10429800BB610023FB6103233B6207237B6207F1B9
:1042A800140319460648FCF79FFF00BF2837BD4690
:1042B80080BD00BF004800400010024000100048C8
:1042C80000040048DFF834D0002103E00C4B5B58B1
:1042D800435004310B480C4B42189A42F6D30B4A10
:1042E80002E0002342F8043B094B9A42F9D3FFF756
:1042F8000BFF00F011F8FFF7EDFDFEE700A000202E
:10430800F0430008000000200C0000200C000020F2
:10431800A0010020FEE7000070B50D4E0D4CA41B57
:10432800A4100025A54209D10B4E0C4C00F020F832
:10433800A41BA4100025A54205D170BD56F8253050
:1043480098470135EEE756F8253098470135F2E7EA
:10435800E8430008E8430008E8430008EC43000885
:1043680002440346934200D1704703F8011BF9E762
:10437800F8B500BFF8BC08BC9E467047F8B500BF4A
:08438800F8BC08BC9E4670471A
:1043900056000000410000003332280F01000000E9
:1043A000555342746F43414E204D53473A0000002D
:1043B00002030405060708090A0B0C0D0E0F101066
:1043C0000102030405060708090A0B0C0D0E0F1065
:1043D00000000000000000000102030406070809B5
:0843E0000000000001020304CB
:0443E800AD0100081B
:0443EC00890100083B
:0C43F000100000000100000000127A0024
:04000005080042CDE0
:00000001FF
